{
  "contractName": "MultiSig",
  "abi": [
    {
      "constant": true,
      "inputs": [
        {
          "name": "",
          "type": "uint256"
        }
      ],
      "name": "owners",
      "outputs": [
        {
          "name": "",
          "type": "address"
        }
      ],
      "payable": false,
      "stateMutability": "view",
      "type": "function"
    },
    {
      "constant": true,
      "inputs": [],
      "name": "nonce",
      "outputs": [
        {
          "name": "",
          "type": "uint256"
        }
      ],
      "payable": false,
      "stateMutability": "view",
      "type": "function"
    },
    {
      "constant": true,
      "inputs": [],
      "name": "listOwners",
      "outputs": [
        {
          "name": "",
          "type": "address[]"
        }
      ],
      "payable": false,
      "stateMutability": "view",
      "type": "function"
    },
    {
      "constant": false,
      "inputs": [
        {
          "name": "v",
          "type": "uint8[]"
        },
        {
          "name": "r",
          "type": "bytes32[]"
        },
        {
          "name": "s",
          "type": "bytes32[]"
        },
        {
          "name": "destination",
          "type": "address"
        },
        {
          "name": "value",
          "type": "uint256"
        },
        {
          "name": "data",
          "type": "bytes"
        }
      ],
      "name": "execute",
      "outputs": [],
      "payable": false,
      "stateMutability": "nonpayable",
      "type": "function"
    },
    {
      "inputs": [
        {
          "name": "_owners",
          "type": "address[]"
        }
      ],
      "payable": false,
      "stateMutability": "nonpayable",
      "type": "constructor"
    },
    {
      "payable": true,
      "stateMutability": "payable",
      "type": "fallback"
    },
    {
      "anonymous": false,
      "inputs": [
        {
          "indexed": true,
          "name": "destination",
          "type": "address"
        },
        {
          "indexed": false,
          "name": "nonce",
          "type": "uint256"
        },
        {
          "indexed": false,
          "name": "value",
          "type": "uint256"
        },
        {
          "indexed": false,
          "name": "data",
          "type": "bytes"
        }
      ],
      "name": "Executed",
      "type": "event"
    }
  ],
  "bytecode": "0x6060604052341561000f57600080fd5b604051610a23380380610a2383398101604052808051820191905050806000815111151561003c57600080fd5b816001908051906020019061005292919061005a565b505050610127565b8280548282559060005260206000209081019282156100d3579160200282015b828111156100d25782518260006101000a81548173ffffffffffffffffffffffffffffffffffffffff021916908373ffffffffffffffffffffffffffffffffffffffff1602179055509160200191906001019061007a565b5b5090506100e091906100e4565b5090565b61012491905b8082111561012057600081816101000a81549073ffffffffffffffffffffffffffffffffffffffff0219169055506001016100ea565b5090565b90565b6108ed806101366000396000f300606060405260043610610062576000357c0100000000000000000000000000000000000000000000000000000000900463ffffffff168063025e7c2714610064578063affed0e0146100c7578063ed60c0fc146100f0578063f12d394f1461015a575b005b341561006f57600080fd5b610085600480803590602001909190505061029f565b604051808273ffffffffffffffffffffffffffffffffffffffff1673ffffffffffffffffffffffffffffffffffffffff16815260200191505060405180910390f35b34156100d257600080fd5b6100da6102de565b6040518082815260200191505060405180910390f35b34156100fb57600080fd5b6101036102e4565b6040518080602001828103825283818151815260200191508051906020019060200280838360005b8381101561014657808201518184015260208101905061012b565b505050509050019250505060405180910390f35b341561016557600080fd5b61029d600480803590602001908201803590602001908080602002602001604051908101604052809392919081815260200183836020028082843782019150505050505091908035906020019082018035906020019080806020026020016040519081016040528093929190818152602001838360200280828437820191505050505050919080359060200190820180359060200190808060200260200160405190810160405280939291908181526020018383602002808284378201915050505050509190803573ffffffffffffffffffffffffffffffffffffffff1690602001909190803590602001909190803590602001908201803590602001908080601f01602080910402602001604051908101604052809392919081815260200183838082843782019150505050505091905050610378565b005b6001818154811015156102ae57fe5b90600052602060002090016000915054906101000a900473ffffffffffffffffffffffffffffffffffffffff1681565b60005481565b6102ec6108ad565b600180548060200260200160405190810160405280929190818152602001828054801561036e57602002820191906000526020600020905b8160009054906101000a900473ffffffffffffffffffffffffffffffffffffffff1673ffffffffffffffffffffffffffffffffffffffff1681526020019060010190808311610324575b5050505050905090565b85858560197f01000000000000000000000000000000000000000000000000000000000000000260007f0100000000000000000000000000000000000000000000000000000000000000023088888860005460405180887effffffffffffffffffffffffffffffffffffffffffffffffffffffffffffff19167effffffffffffffffffffffffffffffffffffffffffffffffffffffffffffff19168152600101877effffffffffffffffffffffffffffffffffffffffffffffffffffffffffffff19167effffffffffffffffffffffffffffffffffffffffffffffffffffffffffffff191681526001018673ffffffffffffffffffffffffffffffffffffffff1673ffffffffffffffffffffffffffffffffffffffff166c010000000000000000000000000281526014018573ffffffffffffffffffffffffffffffffffffffff1673ffffffffffffffffffffffffffffffffffffffff166c0100000000000000000000000002815260140184815260200183805190602001908083835b60208310151561051b57805182526020820191506020810190506020830392506104f6565b6001836020036101000a0380198251168184511680821785525050505050509050018281526020019750505050505050506040518091039020600080600180549050865114801561057157506001805490508551145b801561058257506001805490508451145b151561058d57600080fd5b8260405180807f19457468657265756d205369676e6564204d6573736167653a0a333200000000815250601c01826000191660001916815260200191505060405180910390209150600090505b600180549050811015610733576001818154811015156105f657fe5b906000526020600020900160009054906101000a900473ffffffffffffffffffffffffffffffffffffffff1673ffffffffffffffffffffffffffffffffffffffff16600183888481518110151561064957fe5b90602001906020020151888581518110151561066157fe5b90602001906020020151888681518110151561067957fe5b90602001906020020151604051600081526020016040526000604051602001526040518085600019166000191681526020018460ff1660ff16815260200183600019166000191681526020018260001916600019168152602001945050505050602060405160208103908084039060008661646e5a03f115156106fb57600080fd5b50506020604051035173ffffffffffffffffffffffffffffffffffffffff1614151561072657600080fd5b80806001019150506105da565b8873ffffffffffffffffffffffffffffffffffffffff167f30dc9a249e121dc7ec74559d42f94e60bb91eb25e06df470ed1be2a02a9d7a046000548a8a6040518084815260200183815260200180602001828103825283818151815260200191508051906020019080838360005b838110156107bc5780820151818401526020810190506107a1565b50505050905090810190601f1680156107e95780820380516001836020036101000a031916815260200191505b5094505050505060405180910390a28873ffffffffffffffffffffffffffffffffffffffff16888860405180828051906020019080838360005b8381101561083e578082015181840152602081019050610823565b50505050905090810190601f16801561086b5780820380516001836020036101000a031916815260200191505b5091505060006040518083038185876187965a03f192505050151561088f57600080fd5b60016000808282540192505081905550505050505050505050505050565b6020604051908101604052806000815250905600a165627a7a723058200bf473d22cd426912d1de51a83f2937abc601b1cf0424552caadb5707a1e7e7c0029",
  "source": "pragma solidity 0.4.18;\n\n\ncontract MultiSig {\n\n    uint256 public nonce;\n    address[] public owners;\n\n    function MultiSig(address[] _owners)\n        public\n        onlyNotEmpty(_owners)\n    {\n        owners = _owners;\n    }\n\n    event Executed(address indexed destination, uint256 nonce, uint256 value, bytes data);\n\n    modifier onlySigned(uint8[] v, bytes32[] r, bytes32[] s, bytes32 hash) {\n        require(\n            (v.length == owners.length) &&\n            (r.length == owners.length) &&\n            (s.length == owners.length)\n        );\n\n        bytes32 prefixedHash = keccak256(\"\\x19Ethereum Signed Message:\\n32\", hash);\n        for (uint256 i = 0; i < owners.length; i++) {\n            require(ecrecover(prefixedHash, v[i], r[i], s[i]) == owners[i]);\n        }\n\n        _;\n\n        nonce += 1;\n    }\n\n    modifier onlyNotEmpty(address[] addresses) {\n        require(addresses.length > 0);\n        _;\n    }\n\n    /* solhint-disable no-empty-blocks */\n    function() public payable {}\n    /* solhint-disable no-empty-blocks */\n\n    function listOwners() public view returns (address[]) {\n        return owners;\n    }\n\n    function execute(\n        uint8[] v,\n        bytes32[] r,\n        bytes32[] s,\n        address destination,\n        uint256 value,\n        bytes data\n    )\n        public\n        onlySigned(v, r, s, keccak256(byte(0x19), byte(0), this, destination, value, data, nonce))\n    {\n        Executed(destination, nonce, value, data);\n\n        /* solhint-disable avoid-call-value */\n        require(destination.call.value(value)(data));\n        /* solhint-enable avoid-call-value */\n    }\n}\n",
  "sourcePath": "/home/js/Projects/js/signhash/signhash-contracts/contracts/MultiSig/MultiSig.sol",
  "compiler": {
    "name": "solc",
    "version": "0.4.18+commit.9cf6e910.Emscripten.clang"
  },
  "schemaVersion": "1.0.1",
  "updatedAt": "2017-12-05T20:36:31.322Z"
}