{
  "contractName": "RecoverableMultiSig",
  "abi": [
    {
      "constant": true,
      "inputs": [
        {
          "name": "",
          "type": "uint256"
        }
      ],
      "name": "owners",
      "outputs": [
        {
          "name": "",
          "type": "address"
        }
      ],
      "payable": false,
      "stateMutability": "view",
      "type": "function"
    },
    {
      "constant": false,
      "inputs": [],
      "name": "cancelRecovery",
      "outputs": [],
      "payable": false,
      "stateMutability": "nonpayable",
      "type": "function"
    },
    {
      "constant": true,
      "inputs": [],
      "name": "recoveryConfirmations",
      "outputs": [
        {
          "name": "",
          "type": "uint256"
        }
      ],
      "payable": false,
      "stateMutability": "view",
      "type": "function"
    },
    {
      "constant": true,
      "inputs": [
        {
          "name": "account",
          "type": "address"
        }
      ],
      "name": "isOwner",
      "outputs": [
        {
          "name": "",
          "type": "bool"
        }
      ],
      "payable": false,
      "stateMutability": "view",
      "type": "function"
    },
    {
      "constant": false,
      "inputs": [
        {
          "name": "newOwners",
          "type": "address[]"
        }
      ],
      "name": "confirmRecovery",
      "outputs": [],
      "payable": false,
      "stateMutability": "nonpayable",
      "type": "function"
    },
    {
      "constant": true,
      "inputs": [],
      "name": "recoveryHash",
      "outputs": [
        {
          "name": "",
          "type": "bytes32"
        }
      ],
      "payable": false,
      "stateMutability": "view",
      "type": "function"
    },
    {
      "constant": true,
      "inputs": [],
      "name": "recoveryBlock",
      "outputs": [
        {
          "name": "",
          "type": "uint256"
        }
      ],
      "payable": false,
      "stateMutability": "view",
      "type": "function"
    },
    {
      "constant": true,
      "inputs": [],
      "name": "nonce",
      "outputs": [
        {
          "name": "",
          "type": "uint256"
        }
      ],
      "payable": false,
      "stateMutability": "view",
      "type": "function"
    },
    {
      "constant": false,
      "inputs": [
        {
          "name": "newOwners",
          "type": "address[]"
        }
      ],
      "name": "startRecovery",
      "outputs": [],
      "payable": false,
      "stateMutability": "nonpayable",
      "type": "function"
    },
    {
      "constant": true,
      "inputs": [],
      "name": "listOwners",
      "outputs": [
        {
          "name": "",
          "type": "address[]"
        }
      ],
      "payable": false,
      "stateMutability": "view",
      "type": "function"
    },
    {
      "constant": false,
      "inputs": [
        {
          "name": "v",
          "type": "uint8[]"
        },
        {
          "name": "r",
          "type": "bytes32[]"
        },
        {
          "name": "s",
          "type": "bytes32[]"
        },
        {
          "name": "destination",
          "type": "address"
        },
        {
          "name": "value",
          "type": "uint256"
        },
        {
          "name": "data",
          "type": "bytes"
        }
      ],
      "name": "execute",
      "outputs": [],
      "payable": false,
      "stateMutability": "nonpayable",
      "type": "function"
    },
    {
      "inputs": [
        {
          "name": "_owners",
          "type": "address[]"
        },
        {
          "name": "_recoveryConfirmations",
          "type": "uint256"
        }
      ],
      "payable": false,
      "stateMutability": "nonpayable",
      "type": "constructor"
    },
    {
      "payable": true,
      "stateMutability": "payable",
      "type": "fallback"
    },
    {
      "anonymous": false,
      "inputs": [
        {
          "indexed": true,
          "name": "from",
          "type": "address"
        },
        {
          "indexed": false,
          "name": "newOwners",
          "type": "address[]"
        }
      ],
      "name": "RecoveryStarted",
      "type": "event"
    },
    {
      "anonymous": false,
      "inputs": [
        {
          "indexed": true,
          "name": "from",
          "type": "address"
        }
      ],
      "name": "RecoveryCancelled",
      "type": "event"
    },
    {
      "anonymous": false,
      "inputs": [
        {
          "indexed": true,
          "name": "from",
          "type": "address"
        },
        {
          "indexed": false,
          "name": "newOwners",
          "type": "address[]"
        }
      ],
      "name": "RecoveryConfirmed",
      "type": "event"
    },
    {
      "anonymous": false,
      "inputs": [
        {
          "indexed": true,
          "name": "from",
          "type": "address"
        },
        {
          "indexed": false,
          "name": "value",
          "type": "uint256"
        }
      ],
      "name": "Deposited",
      "type": "event"
    },
    {
      "anonymous": false,
      "inputs": [
        {
          "indexed": true,
          "name": "destination",
          "type": "address"
        },
        {
          "indexed": false,
          "name": "nonce",
          "type": "uint256"
        },
        {
          "indexed": false,
          "name": "value",
          "type": "uint256"
        },
        {
          "indexed": false,
          "name": "data",
          "type": "bytes"
        }
      ],
      "name": "Executed",
      "type": "event"
    }
  ],
  "bytecode": "0x6060604052341561000f57600080fd5b6040516110d13803806110d18339810160405280805182019190602001805190602001909190505081806000815111151561004957600080fd5b816001908051906020019061005f929190610070565b50505080600281905550505061013d565b8280548282559060005260206000209081019282156100e9579160200282015b828111156100e85782518260006101000a81548173ffffffffffffffffffffffffffffffffffffffff021916908373ffffffffffffffffffffffffffffffffffffffff16021790555091602001919060010190610090565b5b5090506100f691906100fa565b5090565b61013a91905b8082111561013657600081816101000a81549073ffffffffffffffffffffffffffffffffffffffff021916905550600101610100565b5090565b90565b610f858061014c6000396000f3006060604052600436106100af576000357c0100000000000000000000000000000000000000000000000000000000900463ffffffff168063025e7c27146101095780630ba234d61461016c5780632e737f76146101815780632f54bf6e146101aa57806352f2aeac146101fb5780636102495c14610255578063794ee3d914610286578063affed0e0146102af578063b1b3a744146102d8578063ed60c0fc14610332578063f12d394f1461039c575b6000341115610107573373ffffffffffffffffffffffffffffffffffffffff167f2da466a7b24304f47e87fa2e1e5a81b9831ce54fec19055ce277ca2f39ba42c4346040518082815260200191505060405180910390a25b005b341561011457600080fd5b61012a60048080359060200190919050506104e1565b604051808273ffffffffffffffffffffffffffffffffffffffff1673ffffffffffffffffffffffffffffffffffffffff16815260200191505060405180910390f35b341561017757600080fd5b61017f610520565b005b341561018c57600080fd5b610194610592565b6040518082815260200191505060405180910390f35b34156101b557600080fd5b6101e1600480803573ffffffffffffffffffffffffffffffffffffffff16906020019091905050610598565b604051808215151515815260200191505060405180910390f35b341561020657600080fd5b61025360048080359060200190820180359060200190808060200260200160405190810160405280939291908181526020018383602002808284378201915050505050509190505061063c565b005b341561026057600080fd5b610268610783565b60405180826000191660001916815260200191505060405180910390f35b341561029157600080fd5b610299610789565b6040518082815260200191505060405180910390f35b34156102ba57600080fd5b6102c261078f565b6040518082815260200191505060405180910390f35b34156102e357600080fd5b610330600480803590602001908201803590602001908080602002602001604051908101604052809392919081815260200183836020028082843782019150505050505091905050610795565b005b341561033d57600080fd5b6103456108a1565b6040518080602001828103825283818151815260200191508051906020019060200280838360005b8381101561038857808201518184015260208101905061036d565b505050509050019250505060405180910390f35b34156103a757600080fd5b6104df600480803590602001908201803590602001908080602002602001604051908101604052809392919081815260200183836020028082843782019150505050505091908035906020019082018035906020019080806020026020016040519081016040528093929190818152602001838360200280828437820191505050505050919080359060200190820180359060200190808060200260200160405190810160405280939291908181526020018383602002808284378201915050505050509190803573ffffffffffffffffffffffffffffffffffffffff1690602001909190803590602001909190803590602001908201803590602001908080601f01602080910402602001604051908101604052809392919081815260200183838082843782019150505050505091905050610935565b005b6001818154811015156104f057fe5b90600052602060002090016000915054906101000a900473ffffffffffffffffffffffffffffffffffffffff1681565b61052933610598565b151561053457600080fd5b600060035411151561054557600080fd5b61054d610e6a565b3373ffffffffffffffffffffffffffffffffffffffff167f8154b6c5e1fc90d44b49808ef93f9739148d0821411890f8cd684385e24b9f1e60405160405180910390a2565b60025481565b600080600090505b600180549050811015610631576001818154811015156105bc57fe5b906000526020600020900160009054906101000a900473ffffffffffffffffffffffffffffffffffffffff1673ffffffffffffffffffffffffffffffffffffffff168373ffffffffffffffffffffffffffffffffffffffff1614156106245760019150610636565b80806001019150506105a0565b600091505b50919050565b61064533610598565b151561065057600080fd5b600060035411151561066157600080fd5b60025460035401431015151561067657600080fd5b80600454600019168160405180828051906020019060200280838360005b838110156106af578082015181840152602081019050610694565b505050509050019150506040518091039020600019161415156106d157600080fd5b81600190805190602001906106e7929190610e78565b506106f0610e6a565b3373ffffffffffffffffffffffffffffffffffffffff167fbb05e5746c88b170afb20d94797c3645f9822720fc2601b59137820c2fa5c984836040518080602001828103825283818151815260200191508051906020019060200280838360005b8381101561076c578082015181840152602081019050610751565b505050509050019250505060405180910390a25050565b60045481565b60035481565b60005481565b61079e33610598565b15156107a957600080fd5b80600081511115156107ba57600080fd5b436003819055508160405180828051906020019060200280838360005b838110156107f25780820151818401526020810190506107d7565b505050509050019150506040518091039020600481600019169055503373ffffffffffffffffffffffffffffffffffffffff167fb1b6ebc5dd19ea5b01feac6392231a6142251ad4951bdb0491c58485dffc2883836040518080602001828103825283818151815260200191508051906020019060200280838360005b8381101561088a57808201518184015260208101905061086f565b505050509050019250505060405180910390a25050565b6108a9610f02565b600180548060200260200160405190810160405280929190818152602001828054801561092b57602002820191906000526020600020905b8160009054906101000a900473ffffffffffffffffffffffffffffffffffffffff1673ffffffffffffffffffffffffffffffffffffffff16815260200190600101908083116108e1575b5050505050905090565b85858560197f01000000000000000000000000000000000000000000000000000000000000000260007f0100000000000000000000000000000000000000000000000000000000000000023088888860005460405180887effffffffffffffffffffffffffffffffffffffffffffffffffffffffffffff19167effffffffffffffffffffffffffffffffffffffffffffffffffffffffffffff19168152600101877effffffffffffffffffffffffffffffffffffffffffffffffffffffffffffff19167effffffffffffffffffffffffffffffffffffffffffffffffffffffffffffff191681526001018673ffffffffffffffffffffffffffffffffffffffff1673ffffffffffffffffffffffffffffffffffffffff166c010000000000000000000000000281526014018573ffffffffffffffffffffffffffffffffffffffff1673ffffffffffffffffffffffffffffffffffffffff166c0100000000000000000000000002815260140184815260200183805190602001908083835b602083101515610ad85780518252602082019150602081019050602083039250610ab3565b6001836020036101000a03801982511681845116808217855250505050505090500182815260200197505050505050505060405180910390206000806001805490508651148015610b2e57506001805490508551145b8015610b3f57506001805490508451145b1515610b4a57600080fd5b8260405180807f19457468657265756d205369676e6564204d6573736167653a0a333200000000815250601c01826000191660001916815260200191505060405180910390209150600090505b600180549050811015610cf057600181815481101515610bb357fe5b906000526020600020900160009054906101000a900473ffffffffffffffffffffffffffffffffffffffff1673ffffffffffffffffffffffffffffffffffffffff166001838884815181101515610c0657fe5b906020019060200201518885815181101515610c1e57fe5b906020019060200201518886815181101515610c3657fe5b90602001906020020151604051600081526020016040526000604051602001526040518085600019166000191681526020018460ff1660ff16815260200183600019166000191681526020018260001916600019168152602001945050505050602060405160208103908084039060008661646e5a03f11515610cb857600080fd5b50506020604051035173ffffffffffffffffffffffffffffffffffffffff16141515610ce357600080fd5b8080600101915050610b97565b8873ffffffffffffffffffffffffffffffffffffffff167f30dc9a249e121dc7ec74559d42f94e60bb91eb25e06df470ed1be2a02a9d7a046000548a8a6040518084815260200183815260200180602001828103825283818151815260200191508051906020019080838360005b83811015610d79578082015181840152602081019050610d5e565b50505050905090810190601f168015610da65780820380516001836020036101000a031916815260200191505b5094505050505060405180910390a28873ffffffffffffffffffffffffffffffffffffffff16888860405180828051906020019080838360005b83811015610dfb578082015181840152602081019050610de0565b50505050905090810190601f168015610e285780820380516001836020036101000a031916815260200191505b5091505060006040518083038185876187965a03f1925050501515610e4c57600080fd5b60016000808282540192505081905550505050505050505050505050565b600360009055600460009055565b828054828255906000526020600020908101928215610ef1579160200282015b82811115610ef05782518260006101000a81548173ffffffffffffffffffffffffffffffffffffffff021916908373ffffffffffffffffffffffffffffffffffffffff16021790555091602001919060010190610e98565b5b509050610efe9190610f16565b5090565b602060405190810160405280600081525090565b610f5691905b80821115610f5257600081816101000a81549073ffffffffffffffffffffffffffffffffffffffff021916905550600101610f1c565b5090565b905600a165627a7a7230582076d0a1cd77309a6e9d6970bd43ca7171b402f1a247082f011447294838590ad40029",
  "source": "pragma solidity 0.4.18;\n\nimport \"./MultiSig.sol\";\n\n\ncontract RecoverableMultiSig is MultiSig {\n\n    uint256 public recoveryConfirmations;\n    uint256 public recoveryBlock;\n    bytes32 public recoveryHash;\n\n    function RecoverableMultiSig(address[] _owners, uint256 _recoveryConfirmations)\n        public\n        MultiSig(_owners)\n    {\n        recoveryConfirmations = _recoveryConfirmations;\n    }\n\n    event RecoveryStarted(address indexed from, address[] newOwners);\n    event RecoveryCancelled(address indexed from);\n    event RecoveryConfirmed(address indexed from, address[] newOwners);\n\n    modifier onlyOwner() {\n        require(isOwner(msg.sender));\n        _;\n    }\n\n    modifier onlyRecoveryStarted() {\n        require(recoveryBlock > 0);\n        _;\n    }\n\n    modifier onlyRecoveryPassed() {\n        require(recoveryBlock > 0);\n        require(block.number >= recoveryBlock + recoveryConfirmations);\n        _;\n    }\n\n    modifier onlyRecoveryMatches(address[] newOwners) {\n        require(keccak256(newOwners) == recoveryHash);\n        _;\n    }\n\n    function startRecovery(address[] newOwners)\n        public\n        onlyOwner\n        onlyNotEmpty(newOwners)\n    {\n        recoveryBlock = block.number;\n        recoveryHash = keccak256(newOwners);\n\n        RecoveryStarted(msg.sender, newOwners);\n    }\n\n    function cancelRecovery()\n        public\n        onlyOwner\n        onlyRecoveryStarted\n    {\n        clearRecovery();\n\n        RecoveryCancelled(msg.sender);\n    }\n\n    function confirmRecovery(address[] newOwners)\n        public\n        onlyOwner\n        onlyRecoveryPassed\n        onlyRecoveryMatches(newOwners)\n    {\n        owners = newOwners;\n\n        clearRecovery();\n\n        RecoveryConfirmed(msg.sender, newOwners);\n    }\n\n    function isOwner(address account) public view returns (bool) {\n        for (uint256 i = 0; i < owners.length; i++) {\n            if (account == owners[i]) {\n                return true;\n            }\n        }\n\n        return false;\n    }\n\n    function clearRecovery() private {\n        delete recoveryBlock;\n        delete recoveryHash;\n    }\n}\n",
  "sourcePath": "/home/js/Projects/js/signhash/signhash-contracts/contracts/MultiSig/RecoverableMultiSig.sol",
  "compiler": {
    "name": "solc",
    "version": "0.4.18+commit.9cf6e910.Emscripten.clang"
  },
  "schemaVersion": "1.0.1",
  "updatedAt": "2017-12-09T21:56:17.708Z"
}