{
  "contractName": "RecoverableMultiSig",
  "abi": [
    {
      "constant": true,
      "inputs": [
        {
          "name": "",
          "type": "uint256"
        }
      ],
      "name": "owners",
      "outputs": [
        {
          "name": "",
          "type": "address"
        }
      ],
      "payable": false,
      "stateMutability": "view",
      "type": "function"
    },
    {
      "constant": false,
      "inputs": [],
      "name": "cancelRecovery",
      "outputs": [],
      "payable": false,
      "stateMutability": "nonpayable",
      "type": "function"
    },
    {
      "constant": true,
      "inputs": [],
      "name": "recoveryConfirmations",
      "outputs": [
        {
          "name": "",
          "type": "uint256"
        }
      ],
      "payable": false,
      "stateMutability": "view",
      "type": "function"
    },
    {
      "constant": true,
      "inputs": [
        {
          "name": "account",
          "type": "address"
        }
      ],
      "name": "isOwner",
      "outputs": [
        {
          "name": "",
          "type": "bool"
        }
      ],
      "payable": false,
      "stateMutability": "view",
      "type": "function"
    },
    {
      "constant": false,
      "inputs": [
        {
          "name": "v",
          "type": "uint8[]"
        },
        {
          "name": "r",
          "type": "bytes32[]"
        },
        {
          "name": "s",
          "type": "bytes32[]"
        },
        {
          "name": "newOwners",
          "type": "address[]"
        }
      ],
      "name": "transferOwnership",
      "outputs": [],
      "payable": false,
      "stateMutability": "nonpayable",
      "type": "function"
    },
    {
      "constant": false,
      "inputs": [
        {
          "name": "newOwners",
          "type": "address[]"
        }
      ],
      "name": "confirmRecovery",
      "outputs": [],
      "payable": false,
      "stateMutability": "nonpayable",
      "type": "function"
    },
    {
      "constant": true,
      "inputs": [],
      "name": "recoveryHash",
      "outputs": [
        {
          "name": "",
          "type": "bytes32"
        }
      ],
      "payable": false,
      "stateMutability": "view",
      "type": "function"
    },
    {
      "constant": true,
      "inputs": [],
      "name": "recoveryBlock",
      "outputs": [
        {
          "name": "",
          "type": "uint256"
        }
      ],
      "payable": false,
      "stateMutability": "view",
      "type": "function"
    },
    {
      "constant": true,
      "inputs": [],
      "name": "nonce",
      "outputs": [
        {
          "name": "",
          "type": "uint256"
        }
      ],
      "payable": false,
      "stateMutability": "view",
      "type": "function"
    },
    {
      "constant": false,
      "inputs": [
        {
          "name": "newOwners",
          "type": "address[]"
        }
      ],
      "name": "startRecovery",
      "outputs": [],
      "payable": false,
      "stateMutability": "nonpayable",
      "type": "function"
    },
    {
      "constant": true,
      "inputs": [],
      "name": "listOwners",
      "outputs": [
        {
          "name": "",
          "type": "address[]"
        }
      ],
      "payable": false,
      "stateMutability": "view",
      "type": "function"
    },
    {
      "constant": false,
      "inputs": [
        {
          "name": "v",
          "type": "uint8[]"
        },
        {
          "name": "r",
          "type": "bytes32[]"
        },
        {
          "name": "s",
          "type": "bytes32[]"
        },
        {
          "name": "destination",
          "type": "address"
        },
        {
          "name": "value",
          "type": "uint256"
        },
        {
          "name": "data",
          "type": "bytes"
        }
      ],
      "name": "execute",
      "outputs": [],
      "payable": false,
      "stateMutability": "nonpayable",
      "type": "function"
    },
    {
      "inputs": [
        {
          "name": "_owners",
          "type": "address[]"
        },
        {
          "name": "_recoveryConfirmations",
          "type": "uint256"
        }
      ],
      "payable": false,
      "stateMutability": "nonpayable",
      "type": "constructor"
    },
    {
      "payable": true,
      "stateMutability": "payable",
      "type": "fallback"
    },
    {
      "anonymous": false,
      "inputs": [
        {
          "indexed": true,
          "name": "from",
          "type": "address"
        },
        {
          "indexed": false,
          "name": "newOwners",
          "type": "address[]"
        }
      ],
      "name": "RecoveryStarted",
      "type": "event"
    },
    {
      "anonymous": false,
      "inputs": [
        {
          "indexed": true,
          "name": "from",
          "type": "address"
        }
      ],
      "name": "RecoveryCancelled",
      "type": "event"
    },
    {
      "anonymous": false,
      "inputs": [
        {
          "indexed": true,
          "name": "from",
          "type": "address"
        },
        {
          "indexed": false,
          "name": "newOwners",
          "type": "address[]"
        }
      ],
      "name": "RecoveryConfirmed",
      "type": "event"
    },
    {
      "anonymous": false,
      "inputs": [
        {
          "indexed": false,
          "name": "previousOwners",
          "type": "address[]"
        },
        {
          "indexed": false,
          "name": "newOwners",
          "type": "address[]"
        }
      ],
      "name": "OwnershipTransferred",
      "type": "event"
    },
    {
      "anonymous": false,
      "inputs": [
        {
          "indexed": true,
          "name": "destination",
          "type": "address"
        },
        {
          "indexed": false,
          "name": "nonce",
          "type": "uint256"
        },
        {
          "indexed": false,
          "name": "value",
          "type": "uint256"
        },
        {
          "indexed": false,
          "name": "data",
          "type": "bytes"
        }
      ],
      "name": "Executed",
      "type": "event"
    }
  ],
  "bytecode": "0x606060405234156200001057600080fd5b6040516200163a3803806200163a83398101604052808051820191906020018051906020019091905050818080600081511115156200004e57600080fd5b81600190805190602001906200006692919062000079565b505050508060028190555050506200014e565b828054828255906000526020600020908101928215620000f5579160200282015b82811115620000f45782518260006101000a81548173ffffffffffffffffffffffffffffffffffffffff021916908373ffffffffffffffffffffffffffffffffffffffff160217905550916020019190600101906200009a565b5b50905062000104919062000108565b5090565b6200014b91905b808211156200014757600081816101000a81549073ffffffffffffffffffffffffffffffffffffffff0219169055506001016200010f565b5090565b90565b6114dc806200015e6000396000f3006060604052600436106100ba576000357c0100000000000000000000000000000000000000000000000000000000900463ffffffff168063025e7c27146100bc5780630ba234d61461011f5780632e737f76146101345780632f54bf6e1461015d57806335d9c92d146101ae57806352f2aeac146102c85780636102495c14610322578063794ee3d914610353578063affed0e01461037c578063b1b3a744146103a5578063ed60c0fc146103ff578063f12d394f14610469575b005b34156100c757600080fd5b6100dd60048080359060200190919050506105ae565b604051808273ffffffffffffffffffffffffffffffffffffffff1673ffffffffffffffffffffffffffffffffffffffff16815260200191505060405180910390f35b341561012a57600080fd5b6101326105ed565b005b341561013f57600080fd5b61014761065f565b6040518082815260200191505060405180910390f35b341561016857600080fd5b610194600480803573ffffffffffffffffffffffffffffffffffffffff16906020019091905050610665565b604051808215151515815260200191505060405180910390f35b34156101b957600080fd5b6102c6600480803590602001908201803590602001908080602002602001604051908101604052809392919081815260200183836020028082843782019150505050505091908035906020019082018035906020019080806020026020016040519081016040528093929190818152602001838360200280828437820191505050505050919080359060200190820180359060200190808060200260200160405190810160405280939291908181526020018383602002808284378201915050505050509190803590602001908201803590602001908080602002602001604051908101604052809392919081815260200183836020028082843782019150505050505091905050610709565b005b34156102d357600080fd5b610320600480803590602001908201803590602001908080602002602001604051908101604052809392919081815260200183836020028082843782019150505050505091905050610b93565b005b341561032d57600080fd5b610335610cda565b60405180826000191660001916815260200191505060405180910390f35b341561035e57600080fd5b610366610ce0565b6040518082815260200191505060405180910390f35b341561038757600080fd5b61038f610ce6565b6040518082815260200191505060405180910390f35b34156103b057600080fd5b6103fd600480803590602001908201803590602001908080602002602001604051908101604052809392919081815260200183836020028082843782019150505050505091905050610cec565b005b341561040a57600080fd5b610412610df8565b6040518080602001828103825283818151815260200191508051906020019060200280838360005b8381101561045557808201518184015260208101905061043a565b505050509050019250505060405180910390f35b341561047457600080fd5b6105ac600480803590602001908201803590602001908080602002602001604051908101604052809392919081815260200183836020028082843782019150505050505091908035906020019082018035906020019080806020026020016040519081016040528093929190818152602001838360200280828437820191505050505050919080359060200190820180359060200190808060200260200160405190810160405280939291908181526020018383602002808284378201915050505050509190803573ffffffffffffffffffffffffffffffffffffffff1690602001909190803590602001909190803590602001908201803590602001908080601f01602080910402602001604051908101604052809392919081815260200183838082843782019150505050505091905050610e8c565b005b6001818154811015156105bd57fe5b90600052602060002090016000915054906101000a900473ffffffffffffffffffffffffffffffffffffffff1681565b6105f633610665565b151561060157600080fd5b600060035411151561061257600080fd5b61061a6113c1565b3373ffffffffffffffffffffffffffffffffffffffff167f8154b6c5e1fc90d44b49808ef93f9739148d0821411890f8cd684385e24b9f1e60405160405180910390a2565b60025481565b600080600090505b6001805490508110156106fe5760018181548110151561068957fe5b906000526020600020900160009054906101000a900473ffffffffffffffffffffffffffffffffffffffff1673ffffffffffffffffffffffffffffffffffffffff168373ffffffffffffffffffffffffffffffffffffffff1614156106f15760019150610703565b808060010191505061066d565b600091505b50919050565b806000815111151561071a57600080fd5b84848460197f01000000000000000000000000000000000000000000000000000000000000000260007f010000000000000000000000000000000000000000000000000000000000000002308760005460405180867effffffffffffffffffffffffffffffffffffffffffffffffffffffffffffff19167effffffffffffffffffffffffffffffffffffffffffffffffffffffffffffff19168152600101857effffffffffffffffffffffffffffffffffffffffffffffffffffffffffffff19167effffffffffffffffffffffffffffffffffffffffffffffffffffffffffffff191681526001018473ffffffffffffffffffffffffffffffffffffffff1673ffffffffffffffffffffffffffffffffffffffff166c01000000000000000000000000028152601401838051906020019060200280838360005b8381101561086f578082015181840152602081019050610854565b5050505090500182815260200195505050505050604051809103902060008060018054905086511480156108a857506001805490508551145b80156108b957506001805490508451145b15156108c457600080fd5b8260405180807f19457468657265756d205369676e6564204d6573736167653a0a333200000000815250601c01826000191660001916815260200191505060405180910390209150600090505b600180549050811015610a6a5760018181548110151561092d57fe5b906000526020600020900160009054906101000a900473ffffffffffffffffffffffffffffffffffffffff1673ffffffffffffffffffffffffffffffffffffffff16600183888481518110151561098057fe5b90602001906020020151888581518110151561099857fe5b9060200190602002015188868151811015156109b057fe5b90602001906020020151604051600081526020016040526000604051602001526040518085600019166000191681526020018460ff1660ff16815260200183600019166000191681526020018260001916600019168152602001945050505050602060405160208103908084039060008661646e5a03f11515610a3257600080fd5b50506020604051035173ffffffffffffffffffffffffffffffffffffffff16141515610a5d57600080fd5b8080600101915050610911565b7fe62c04bb3499d4f432a50e07318d42861c4865afb22ee4cfe403d4f9455070906001896040518080602001806020018381038352858181548152602001915080548015610b0d57602002820191906000526020600020905b8160009054906101000a900473ffffffffffffffffffffffffffffffffffffffff1673ffffffffffffffffffffffffffffffffffffffff1681526020019060010190808311610ac3575b5050838103825284818151815260200191508051906020019060200280838360005b83811015610b4a578082015181840152602081019050610b2f565b5050505090500194505050505060405180910390a18760019080519060200190610b759291906113cf565b50600160008082825401925050819055505050505050505050505050565b610b9c33610665565b1515610ba757600080fd5b6000600354111515610bb857600080fd5b600254600354014310151515610bcd57600080fd5b80600454600019168160405180828051906020019060200280838360005b83811015610c06578082015181840152602081019050610beb565b50505050905001915050604051809103902060001916141515610c2857600080fd5b8160019080519060200190610c3e9291906113cf565b50610c476113c1565b3373ffffffffffffffffffffffffffffffffffffffff167fbb05e5746c88b170afb20d94797c3645f9822720fc2601b59137820c2fa5c984836040518080602001828103825283818151815260200191508051906020019060200280838360005b83811015610cc3578082015181840152602081019050610ca8565b505050509050019250505060405180910390a25050565b60045481565b60035481565b60005481565b610cf533610665565b1515610d0057600080fd5b8060008151111515610d1157600080fd5b436003819055508160405180828051906020019060200280838360005b83811015610d49578082015181840152602081019050610d2e565b505050509050019150506040518091039020600481600019169055503373ffffffffffffffffffffffffffffffffffffffff167fb1b6ebc5dd19ea5b01feac6392231a6142251ad4951bdb0491c58485dffc2883836040518080602001828103825283818151815260200191508051906020019060200280838360005b83811015610de1578082015181840152602081019050610dc6565b505050509050019250505060405180910390a25050565b610e00611459565b6001805480602002602001604051908101604052809291908181526020018280548015610e8257602002820191906000526020600020905b8160009054906101000a900473ffffffffffffffffffffffffffffffffffffffff1673ffffffffffffffffffffffffffffffffffffffff1681526020019060010190808311610e38575b5050505050905090565b85858560197f01000000000000000000000000000000000000000000000000000000000000000260007f0100000000000000000000000000000000000000000000000000000000000000023088888860005460405180887effffffffffffffffffffffffffffffffffffffffffffffffffffffffffffff19167effffffffffffffffffffffffffffffffffffffffffffffffffffffffffffff19168152600101877effffffffffffffffffffffffffffffffffffffffffffffffffffffffffffff19167effffffffffffffffffffffffffffffffffffffffffffffffffffffffffffff191681526001018673ffffffffffffffffffffffffffffffffffffffff1673ffffffffffffffffffffffffffffffffffffffff166c010000000000000000000000000281526014018573ffffffffffffffffffffffffffffffffffffffff1673ffffffffffffffffffffffffffffffffffffffff166c0100000000000000000000000002815260140184815260200183805190602001908083835b60208310151561102f578051825260208201915060208101905060208303925061100a565b6001836020036101000a0380198251168184511680821785525050505050509050018281526020019750505050505050506040518091039020600080600180549050865114801561108557506001805490508551145b801561109657506001805490508451145b15156110a157600080fd5b8260405180807f19457468657265756d205369676e6564204d6573736167653a0a333200000000815250601c01826000191660001916815260200191505060405180910390209150600090505b6001805490508110156112475760018181548110151561110a57fe5b906000526020600020900160009054906101000a900473ffffffffffffffffffffffffffffffffffffffff1673ffffffffffffffffffffffffffffffffffffffff16600183888481518110151561115d57fe5b90602001906020020151888581518110151561117557fe5b90602001906020020151888681518110151561118d57fe5b90602001906020020151604051600081526020016040526000604051602001526040518085600019166000191681526020018460ff1660ff16815260200183600019166000191681526020018260001916600019168152602001945050505050602060405160208103908084039060008661646e5a03f1151561120f57600080fd5b50506020604051035173ffffffffffffffffffffffffffffffffffffffff1614151561123a57600080fd5b80806001019150506110ee565b8873ffffffffffffffffffffffffffffffffffffffff167f30dc9a249e121dc7ec74559d42f94e60bb91eb25e06df470ed1be2a02a9d7a046000548a8a6040518084815260200183815260200180602001828103825283818151815260200191508051906020019080838360005b838110156112d05780820151818401526020810190506112b5565b50505050905090810190601f1680156112fd5780820380516001836020036101000a031916815260200191505b5094505050505060405180910390a28873ffffffffffffffffffffffffffffffffffffffff16888860405180828051906020019080838360005b83811015611352578082015181840152602081019050611337565b50505050905090810190601f16801561137f5780820380516001836020036101000a031916815260200191505b5091505060006040518083038185876187965a03f19250505015156113a357600080fd5b60016000808282540192505081905550505050505050505050505050565b600360009055600460009055565b828054828255906000526020600020908101928215611448579160200282015b828111156114475782518260006101000a81548173ffffffffffffffffffffffffffffffffffffffff021916908373ffffffffffffffffffffffffffffffffffffffff160217905550916020019190600101906113ef565b5b509050611455919061146d565b5090565b602060405190810160405280600081525090565b6114ad91905b808211156114a957600081816101000a81549073ffffffffffffffffffffffffffffffffffffffff021916905550600101611473565b5090565b905600a165627a7a72305820cf1747d698b80eb0e7d54dde2998379b1de3963425ff579ee90c4936477bcf6a0029",
  "source": "pragma solidity 0.4.18;\n\nimport \"./TransferableMultiSig.sol\";\n\n\ncontract RecoverableMultiSig is TransferableMultiSig {\n\n    uint256 public recoveryConfirmations;\n    uint256 public recoveryBlock;\n    bytes32 public recoveryHash;\n\n    function RecoverableMultiSig(address[] _owners, uint256 _recoveryConfirmations)\n        public\n        TransferableMultiSig(_owners)\n    {\n        recoveryConfirmations = _recoveryConfirmations;\n    }\n\n    event RecoveryStarted(address indexed from, address[] newOwners);\n    event RecoveryCancelled(address indexed from);\n    event RecoveryConfirmed(address indexed from, address[] newOwners);\n\n    modifier onlyOwner() {\n        require(isOwner(msg.sender));\n        _;\n    }\n\n    modifier onlyRecoveryStarted() {\n        require(recoveryBlock > 0);\n        _;\n    }\n\n    modifier onlyRecoveryPassed() {\n        require(recoveryBlock > 0);\n        require(block.number >= recoveryBlock + recoveryConfirmations);\n        _;\n    }\n\n    modifier onlyRecoveryMatches(address[] newOwners) {\n        require(keccak256(newOwners) == recoveryHash);\n        _;\n    }\n\n    function startRecovery(address[] newOwners)\n        public\n        onlyOwner\n        onlyNotEmpty(newOwners)\n    {\n        recoveryBlock = block.number;\n        recoveryHash = keccak256(newOwners);\n\n        RecoveryStarted(msg.sender, newOwners);\n    }\n\n    function cancelRecovery()\n        public\n        onlyOwner\n        onlyRecoveryStarted\n    {\n        clearRecovery();\n\n        RecoveryCancelled(msg.sender);\n    }\n\n    function confirmRecovery(address[] newOwners)\n        public\n        onlyOwner\n        onlyRecoveryPassed\n        onlyRecoveryMatches(newOwners)\n    {\n        owners = newOwners;\n\n        clearRecovery();\n\n        RecoveryConfirmed(msg.sender, newOwners);\n    }\n\n    function isOwner(address account) public view returns (bool) {\n        for (uint256 i = 0; i < owners.length; i++) {\n            if (account == owners[i]) {\n                return true;\n            }\n        }\n\n        return false;\n    }\n\n    function clearRecovery() private {\n        delete recoveryBlock;\n        delete recoveryHash;\n    }\n}\n",
  "sourcePath": "/home/js/Projects/js/signhash/signhash-contracts/contracts/MultiSig/RecoverableMultiSig.sol",
  "compiler": {
    "name": "solc",
    "version": "0.4.18+commit.9cf6e910.Emscripten.clang"
  },
  "schemaVersion": "1.0.1",
  "updatedAt": "2017-12-05T22:39:14.774Z"
}