{
  "contractName": "SignProof",
  "abi": [
    {
      "constant": false,
      "inputs": [
        {
          "name": "method",
          "type": "string"
        }
      ],
      "name": "remove",
      "outputs": [],
      "payable": false,
      "stateMutability": "nonpayable",
      "type": "function"
    },
    {
      "constant": false,
      "inputs": [
        {
          "name": "method",
          "type": "string"
        },
        {
          "name": "value",
          "type": "string"
        }
      ],
      "name": "add",
      "outputs": [],
      "payable": false,
      "stateMutability": "nonpayable",
      "type": "function"
    },
    {
      "constant": true,
      "inputs": [
        {
          "name": "signer",
          "type": "address"
        },
        {
          "name": "method",
          "type": "string"
        }
      ],
      "name": "get",
      "outputs": [
        {
          "name": "",
          "type": "string"
        }
      ],
      "payable": false,
      "stateMutability": "view",
      "type": "function"
    },
    {
      "anonymous": false,
      "inputs": [
        {
          "indexed": true,
          "name": "signer",
          "type": "address"
        },
        {
          "indexed": false,
          "name": "method",
          "type": "string"
        },
        {
          "indexed": false,
          "name": "value",
          "type": "string"
        }
      ],
      "name": "Added",
      "type": "event"
    },
    {
      "anonymous": false,
      "inputs": [
        {
          "indexed": true,
          "name": "signer",
          "type": "address"
        },
        {
          "indexed": false,
          "name": "method",
          "type": "string"
        }
      ],
      "name": "Removed",
      "type": "event"
    }
  ],
  "bytecode": "0x6060604052341561000f57600080fd5b6109168061001e6000396000f300606060405260043610610057576000357c0100000000000000000000000000000000000000000000000000000000900463ffffffff16806380599e4b1461005c578063ebdf86ca146100b9578063fc2525ab14610159575b600080fd5b341561006757600080fd5b6100b7600480803590602001908201803590602001908080601f0160208091040260200160405190810160405280939291908181526020018383808284378201915050505050509190505061024e565b005b34156100c457600080fd5b610157600480803590602001908201803590602001908080601f0160208091040260200160405190810160405280939291908181526020018383808284378201915050505050509190803590602001908201803590602001908080601f01602080910402602001604051908101604052809392919081815260200183838082843782019150505050505091905050610495565b005b341561016457600080fd5b6101d3600480803573ffffffffffffffffffffffffffffffffffffffff1690602001909190803590602001908201803590602001908080601f01602080910402602001604051908101604052809392919081815260200183838082843782019150505050505091905050610699565b6040518080602001828103825283818151815260200191508051906020019080838360005b838110156102135780820151818401526020810190506101f8565b50505050905090810190601f1680156102405780820380516001836020036101000a031916815260200191505b509250505060405180910390f35b806000815111151561025f57600080fd5b8160008060003373ffffffffffffffffffffffffffffffffffffffff1673ffffffffffffffffffffffffffffffffffffffff168152602001908152602001600020826040518082805190602001908083835b6020831015156102d657805182526020820191506020810190506020830392506102b1565b6001836020036101000a038019825116818451168082178552505050505050905001915050908152602001604051809103902080546001816001161561010002031660029004905011151561032a57600080fd5b6000803373ffffffffffffffffffffffffffffffffffffffff1673ffffffffffffffffffffffffffffffffffffffff168152602001908152602001600020836040518082805190602001908083835b60208310151561039e5780518252602082019150602081019050602083039250610379565b6001836020036101000a038019825116818451168082178552505050505050905001915050908152602001604051809103902060006103dd91906107e9565b3373ffffffffffffffffffffffffffffffffffffffff167f5186bdc50c06226432bd61c8e948665ded3e3754d31ee1bff54a1dca6c47dc13846040518080602001828103825283818151815260200191508051906020019080838360005b8381101561045657808201518184015260208101905061043b565b50505050905090810190601f1680156104835780820380516001836020036101000a031916815260200191505b509250505060405180910390a2505050565b81600081511115156104a657600080fd5b81600081511115156104b757600080fd5b826000803373ffffffffffffffffffffffffffffffffffffffff1673ffffffffffffffffffffffffffffffffffffffff168152602001908152602001600020856040518082805190602001908083835b60208310151561052c5780518252602082019150602081019050602083039250610507565b6001836020036101000a03801982511681845116808217855250505050505090500191505090815260200160405180910390209080519060200190610572929190610831565b503373ffffffffffffffffffffffffffffffffffffffff167f93f62ff1d07e6c991f999d971a2176a00ce975ee58a6f876bc75c1d92ce5cb3f8585604051808060200180602001838103835285818151815260200191508051906020019080838360005b838110156105f15780820151818401526020810190506105d6565b50505050905090810190601f16801561061e5780820380516001836020036101000a031916815260200191505b50838103825284818151815260200191508051906020019080838360005b8381101561065757808201518184015260208101905061063c565b50505050905090810190601f1680156106845780820380516001836020036101000a031916815260200191505b5094505050505060405180910390a250505050565b6106a16108b1565b6000808473ffffffffffffffffffffffffffffffffffffffff1673ffffffffffffffffffffffffffffffffffffffff168152602001908152602001600020826040518082805190602001908083835b60208310151561071557805182526020820191506020810190506020830392506106f0565b6001836020036101000a03801982511681845116808217855250505050505090500191505090815260200160405180910390208054600181600116156101000203166002900480601f0160208091040260200160405190810160405280929190818152602001828054600181600116156101000203166002900480156107dc5780601f106107b1576101008083540402835291602001916107dc565b820191906000526020600020905b8154815290600101906020018083116107bf57829003601f168201915b5050505050905092915050565b50805460018160011615610100020316600290046000825580601f1061080f575061082e565b601f01602090049060005260206000209081019061082d91906108c5565b5b50565b828054600181600116156101000203166002900490600052602060002090601f016020900481019282601f1061087257805160ff19168380011785556108a0565b828001600101855582156108a0579182015b8281111561089f578251825591602001919060010190610884565b5b5090506108ad91906108c5565b5090565b602060405190810160405280600081525090565b6108e791905b808211156108e35760008160009055506001016108cb565b5090565b905600a165627a7a72305820eb1e05d64b20e1352f2fdcd9dcf89e68fc0a86e0a9228130e04ce923b775c7250029",
  "source": "pragma solidity 0.4.18;\n\nimport \"./AddressSet.sol\";\n\n\ncontract SignProof {\n\n    // signer to proofs (method to value)\n    mapping (address => mapping (string => string)) private proofs;\n\n    event Added(address indexed signer, string method, string value);\n    event Removed(address indexed signer, string method);\n\n    modifier onlyNotEmpty(string str) {\n        require(bytes(str).length > 0);\n        _;\n    }\n\n    modifier onlyExisting(string method) {\n        require(bytes(proofs[msg.sender][method]).length > 0);\n        _;\n    }\n\n    function add(string method, string value)\n        public\n        onlyNotEmpty(method)\n        onlyNotEmpty(value)\n    {\n        proofs[msg.sender][method] = value;\n\n        Added(msg.sender, method, value);\n    }\n\n    function remove(string method)\n        public\n        onlyNotEmpty(method)\n        onlyExisting(method)\n    {\n        delete proofs[msg.sender][method];\n\n        Removed(msg.sender, method);\n    }\n\n    function get(address signer, string method)\n        public\n        view\n        returns (string)\n    {\n        return proofs[signer][method];\n    }\n}\n",
  "sourcePath": "/home/js/Projects/js/signhash/signhash-contracts/contracts/SignProof.sol",
  "compiler": {
    "name": "solc",
    "version": "0.4.18+commit.9cf6e910.Emscripten.clang"
  },
  "schemaVersion": "1.0.1",
  "updatedAt": "2017-12-10T21:16:10.580Z"
}