{
  "contractName": "SignHash",
  "abi": [
    {
      "constant": true,
      "inputs": [
        {
          "name": "hash",
          "type": "bytes32"
        },
        {
          "name": "maxCount",
          "type": "uint256"
        }
      ],
      "name": "list",
      "outputs": [
        {
          "name": "",
          "type": "address[]"
        }
      ],
      "payable": false,
      "stateMutability": "view",
      "type": "function"
    },
    {
      "constant": false,
      "inputs": [
        {
          "name": "hash",
          "type": "bytes32"
        }
      ],
      "name": "sign",
      "outputs": [],
      "payable": false,
      "stateMutability": "nonpayable",
      "type": "function"
    },
    {
      "constant": false,
      "inputs": [
        {
          "name": "hash",
          "type": "bytes32"
        }
      ],
      "name": "revoke",
      "outputs": [],
      "payable": false,
      "stateMutability": "nonpayable",
      "type": "function"
    },
    {
      "anonymous": false,
      "inputs": [
        {
          "indexed": true,
          "name": "hash",
          "type": "bytes32"
        },
        {
          "indexed": true,
          "name": "signer",
          "type": "address"
        }
      ],
      "name": "Signed",
      "type": "event"
    },
    {
      "anonymous": false,
      "inputs": [
        {
          "indexed": true,
          "name": "hash",
          "type": "bytes32"
        },
        {
          "indexed": true,
          "name": "signer",
          "type": "address"
        }
      ],
      "name": "Revoked",
      "type": "event"
    }
  ],
  "bytecode": "0x6060604052341561000f57600080fd5b610c5c8061001e6000396000f300606060405260043610610057576000357c0100000000000000000000000000000000000000000000000000000000900463ffffffff168063345c550f1461005c578063799cd333146100e1578063b75c7dc614610108575b600080fd5b341561006757600080fd5b61008a60048080356000191690602001909190803590602001909190505061012f565b6040518080602001828103825283818151815260200191508051906020019060200280838360005b838110156100cd5780820151818401526020810190506100b2565b505050509050019250505060405180910390f35b34156100ec57600080fd5b61010660048080356000191690602001909190505061016b565b005b341561011357600080fd5b61012d600480803560001916906020019091905050610200565b005b610137610c1c565b61016382600080866000191660001916815260200190815260200160002061029590919063ffffffff16565b905092915050565b8060006001026000191681600019161415151561018757600080fd5b6101b33360008085600019166000191681526020019081526020016000206103d890919063ffffffff16565b503373ffffffffffffffffffffffffffffffffffffffff1682600019167fdc9da68bd73c4161c8f5bc195573e6649390acdb7090a16542862b767eacac5a60405160405180910390a35050565b8060006001026000191681600019161415151561021c57600080fd5b61024833600080856000191660001916815260200190815260200160002061063e90919063ffffffff16565b503373ffffffffffffffffffffffffffffffffffffffff1682600019167f5bc2baf870c5baf189838b5e0b0e3b04a3263e2df5d305d1c15f3e6022f5dc4560405160405180910390a35050565b61029d610c1c565b6102a5610c1c565b6000806102b6858760020154610ab5565b9450846040518059106102c65750595b908082528060200260200182016040525092508560000160009054906101000a900473ffffffffffffffffffffffffffffffffffffffff169150600090505b848110156103cc5781838281518110151561031c57fe5b9060200190602002019073ffffffffffffffffffffffffffffffffffffffff16908173ffffffffffffffffffffffffffffffffffffffff16815250508560030160008373ffffffffffffffffffffffffffffffffffffffff1673ffffffffffffffffffffffffffffffffffffffff16815260200190815260200160002060010160009054906101000a900473ffffffffffffffffffffffffffffffffffffffff1691508080600101915050610305565b82935050505092915050565b60008073ffffffffffffffffffffffffffffffffffffffff168360000160009054906101000a900473ffffffffffffffffffffffffffffffffffffffff1673ffffffffffffffffffffffffffffffffffffffff16141561047a57818360000160006101000a81548173ffffffffffffffffffffffffffffffffffffffff021916908373ffffffffffffffffffffffffffffffffffffffff1602179055506105e7565b6104848383610ace565b15156105dd57818360030160008560010160009054906101000a900473ffffffffffffffffffffffffffffffffffffffff1673ffffffffffffffffffffffffffffffffffffffff1673ffffffffffffffffffffffffffffffffffffffff16815260200190815260200160002060010160006101000a81548173ffffffffffffffffffffffffffffffffffffffff021916908373ffffffffffffffffffffffffffffffffffffffff1602179055508260010160009054906101000a900473ffffffffffffffffffffffffffffffffffffffff168360030160008473ffffffffffffffffffffffffffffffffffffffff1673ffffffffffffffffffffffffffffffffffffffff16815260200190815260200160002060000160006101000a81548173ffffffffffffffffffffffffffffffffffffffff021916908373ffffffffffffffffffffffffffffffffffffffff1602179055506105e6565b60009050610638565b5b818360010160006101000a81548173ffffffffffffffffffffffffffffffffffffffff021916908373ffffffffffffffffffffffffffffffffffffffff16021790555061063383610bc7565b600190505b92915050565b6000808360030160008473ffffffffffffffffffffffffffffffffffffffff1673ffffffffffffffffffffffffffffffffffffffff1681526020019081526020016000209050600073ffffffffffffffffffffffffffffffffffffffff168160000160009054906101000a900473ffffffffffffffffffffffffffffffffffffffff1673ffffffffffffffffffffffffffffffffffffffff161415156107ae578060010160009054906101000a900473ffffffffffffffffffffffffffffffffffffffff168460030160008360000160009054906101000a900473ffffffffffffffffffffffffffffffffffffffff1673ffffffffffffffffffffffffffffffffffffffff1673ffffffffffffffffffffffffffffffffffffffff16815260200190815260200160002060010160006101000a81548173ffffffffffffffffffffffffffffffffffffffff021916908373ffffffffffffffffffffffffffffffffffffffff16021790555061087c565b8360000160009054906101000a900473ffffffffffffffffffffffffffffffffffffffff1673ffffffffffffffffffffffffffffffffffffffff168373ffffffffffffffffffffffffffffffffffffffff161415610872578060010160009054906101000a900473ffffffffffffffffffffffffffffffffffffffff168460000160006101000a81548173ffffffffffffffffffffffffffffffffffffffff021916908373ffffffffffffffffffffffffffffffffffffffff16021790555061087b565b60009150610aae565b5b600073ffffffffffffffffffffffffffffffffffffffff168160010160009054906101000a900473ffffffffffffffffffffffffffffffffffffffff1673ffffffffffffffffffffffffffffffffffffffff161415156109a6578060000160009054906101000a900473ffffffffffffffffffffffffffffffffffffffff168460030160008360010160009054906101000a900473ffffffffffffffffffffffffffffffffffffffff1673ffffffffffffffffffffffffffffffffffffffff1673ffffffffffffffffffffffffffffffffffffffff16815260200190815260200160002060000160006101000a81548173ffffffffffffffffffffffffffffffffffffffff021916908373ffffffffffffffffffffffffffffffffffffffff160217905550610a0e565b8060000160009054906101000a900473ffffffffffffffffffffffffffffffffffffffff168460010160006101000a81548173ffffffffffffffffffffffffffffffffffffffff021916908373ffffffffffffffffffffffffffffffffffffffff1602179055505b610a1784610bf4565b8360030160008473ffffffffffffffffffffffffffffffffffffffff1673ffffffffffffffffffffffffffffffffffffffff168152602001908152602001600020600080820160006101000a81549073ffffffffffffffffffffffffffffffffffffffff02191690556001820160006101000a81549073ffffffffffffffffffffffffffffffffffffffff02191690555050600191505b5092915050565b6000818310610ac45781610ac6565b825b905092915050565b60008260000160009054906101000a900473ffffffffffffffffffffffffffffffffffffffff1673ffffffffffffffffffffffffffffffffffffffff168273ffffffffffffffffffffffffffffffffffffffff161480610bbf5750600073ffffffffffffffffffffffffffffffffffffffff168360030160008473ffffffffffffffffffffffffffffffffffffffff1673ffffffffffffffffffffffffffffffffffffffff16815260200190815260200160002060000160009054906101000a900473ffffffffffffffffffffffffffffffffffffffff1673ffffffffffffffffffffffffffffffffffffffff1614155b905092915050565b80600201546001826002015401111515610bdd57fe5b806002016000815480929190600101919050555050565b60008160020154111515610c0457fe5b80600201600081548092919060019003919050555050565b6020604051908101604052806000815250905600a165627a7a72305820374f526f0725b07f1406145a323c0d2b4bebaa630c3c47682dae2163b9ae9a710029",
  "source": "pragma solidity 0.4.18;\n\nimport \"./AddressSet.sol\";\n\n\ncontract SignHash {\n\n    using AddressSet for AddressSet.Data;\n\n    // hash to signers\n    mapping (bytes32 => AddressSet.Data) private signers;\n\n    event Signed(bytes32 indexed hash, address indexed signer);\n    event Revoked(bytes32 indexed hash, address indexed signer);\n\n    modifier onlyNotZero(bytes32 value) {\n        require(value != bytes32(0));\n        _;\n    }\n\n    function sign(bytes32 hash)\n        public\n        onlyNotZero(hash)\n    {\n        signers[hash].add(msg.sender);\n\n        Signed(hash, msg.sender);\n    }\n\n    function revoke(bytes32 hash)\n        public\n        onlyNotZero(hash)\n    {\n        signers[hash].remove(msg.sender);\n\n        Revoked(hash, msg.sender);\n    }\n\n    function list(bytes32 hash, uint256 maxCount)\n        public\n        view\n        returns (address[])\n    {\n        return signers[hash].toArray(maxCount);\n    }\n}\n",
  "sourcePath": "/home/js/Projects/js/signhash/signhash-contracts/contracts/SignHash.sol",
  "compiler": {
    "name": "solc",
    "version": "0.4.18+commit.9cf6e910.Emscripten.clang"
  },
  "schemaVersion": "1.0.1",
  "updatedAt": "2017-12-10T22:25:31.105Z"
}