{
  "contractName": "SignHash",
  "abi": [
    {
      "constant": true,
      "inputs": [
        {
          "name": "hash",
          "type": "bytes32"
        },
        {
          "name": "maxCount",
          "type": "uint256"
        }
      ],
      "name": "list",
      "outputs": [
        {
          "name": "result",
          "type": "address[]"
        }
      ],
      "payable": false,
      "stateMutability": "view",
      "type": "function"
    },
    {
      "constant": false,
      "inputs": [
        {
          "name": "hash",
          "type": "bytes32"
        }
      ],
      "name": "sign",
      "outputs": [],
      "payable": false,
      "stateMutability": "nonpayable",
      "type": "function"
    },
    {
      "constant": false,
      "inputs": [
        {
          "name": "hash",
          "type": "bytes32"
        }
      ],
      "name": "revoke",
      "outputs": [],
      "payable": false,
      "stateMutability": "nonpayable",
      "type": "function"
    },
    {
      "anonymous": false,
      "inputs": [
        {
          "indexed": true,
          "name": "hash",
          "type": "bytes32"
        },
        {
          "indexed": true,
          "name": "signer",
          "type": "address"
        }
      ],
      "name": "Signed",
      "type": "event"
    },
    {
      "anonymous": false,
      "inputs": [
        {
          "indexed": true,
          "name": "hash",
          "type": "bytes32"
        },
        {
          "indexed": true,
          "name": "signer",
          "type": "address"
        }
      ],
      "name": "Revoked",
      "type": "event"
    }
  ],
  "bytecode": "0x6060604052341561000f57600080fd5b610ce18061001e6000396000f300606060405260043610610057576000357c0100000000000000000000000000000000000000000000000000000000900463ffffffff168063345c550f1461005c578063799cd333146100e1578063b75c7dc614610108575b600080fd5b341561006757600080fd5b61008a60048080356000191690602001909190803590602001909190505061012f565b6040518080602001828103825283818151815260200191508051906020019060200280838360005b838110156100cd5780820151818401526020810190506100b2565b505050509050019250505060405180910390f35b34156100ec57600080fd5b610106600480803560001916906020019091905050610269565b005b341561011357600080fd5b61012d6004808035600019169060200190919050506102fc565b005b610137610ca1565b600080600080600087600019166000191681526020019081526020016000209250600083600201541115610260578260020154851015610197578460405180591061017f5750595b908082528060200260200182016040525093506101bd565b82600201546040518059106101a95750595b908082528060200260200182016040525093505b8260000160009054906101000a900473ffffffffffffffffffffffffffffffffffffffff169150600090505b835181101561025f5781848281518110151561020157fe5b9060200190602002019073ffffffffffffffffffffffffffffffffffffffff16908173ffffffffffffffffffffffffffffffffffffffff1681525050610250828461038f90919063ffffffff16565b915080806001019150506101e9565b5b50505092915050565b60006001026000191681600019161415151561028457600080fd5b6102b03360008084600019166000191681526020019081526020016000206103fe90919063ffffffff16565b503373ffffffffffffffffffffffffffffffffffffffff1681600019167fdc9da68bd73c4161c8f5bc195573e6649390acdb7090a16542862b767eacac5a60405160405180910390a350565b60006001026000191681600019161415151561031757600080fd5b6103433360008084600019166000191681526020019081526020016000206106a090919063ffffffff16565b503373ffffffffffffffffffffffffffffffffffffffff1681600019167f5bc2baf870c5baf189838b5e0b0e3b04a3263e2df5d305d1c15f3e6022f5dc4560405160405180910390a350565b60008260030160008373ffffffffffffffffffffffffffffffffffffffff1673ffffffffffffffffffffffffffffffffffffffff16815260200190815260200160002060010160009054906101000a900473ffffffffffffffffffffffffffffffffffffffff16905092915050565b60008073ffffffffffffffffffffffffffffffffffffffff168273ffffffffffffffffffffffffffffffffffffffff161415151561043b57600080fd5b600073ffffffffffffffffffffffffffffffffffffffff168360000160009054906101000a900473ffffffffffffffffffffffffffffffffffffffff1673ffffffffffffffffffffffffffffffffffffffff1614156104dc57818360000160006101000a81548173ffffffffffffffffffffffffffffffffffffffff021916908373ffffffffffffffffffffffffffffffffffffffff160217905550610649565b6104e68383610b53565b151561063f57818360030160008560010160009054906101000a900473ffffffffffffffffffffffffffffffffffffffff1673ffffffffffffffffffffffffffffffffffffffff1673ffffffffffffffffffffffffffffffffffffffff16815260200190815260200160002060010160006101000a81548173ffffffffffffffffffffffffffffffffffffffff021916908373ffffffffffffffffffffffffffffffffffffffff1602179055508260010160009054906101000a900473ffffffffffffffffffffffffffffffffffffffff168360030160008473ffffffffffffffffffffffffffffffffffffffff1673ffffffffffffffffffffffffffffffffffffffff16815260200190815260200160002060000160006101000a81548173ffffffffffffffffffffffffffffffffffffffff021916908373ffffffffffffffffffffffffffffffffffffffff160217905550610648565b6000905061069a565b5b818360010160006101000a81548173ffffffffffffffffffffffffffffffffffffffff021916908373ffffffffffffffffffffffffffffffffffffffff16021790555061069583610c4c565b600190505b92915050565b600080600073ffffffffffffffffffffffffffffffffffffffff168373ffffffffffffffffffffffffffffffffffffffff16141515156106df57600080fd5b8360030160008473ffffffffffffffffffffffffffffffffffffffff1673ffffffffffffffffffffffffffffffffffffffff1681526020019081526020016000209050600073ffffffffffffffffffffffffffffffffffffffff168160000160009054906101000a900473ffffffffffffffffffffffffffffffffffffffff1673ffffffffffffffffffffffffffffffffffffffff1614151561084c578060010160009054906101000a900473ffffffffffffffffffffffffffffffffffffffff168460030160008360000160009054906101000a900473ffffffffffffffffffffffffffffffffffffffff1673ffffffffffffffffffffffffffffffffffffffff1673ffffffffffffffffffffffffffffffffffffffff16815260200190815260200160002060010160006101000a81548173ffffffffffffffffffffffffffffffffffffffff021916908373ffffffffffffffffffffffffffffffffffffffff16021790555061091a565b8360000160009054906101000a900473ffffffffffffffffffffffffffffffffffffffff1673ffffffffffffffffffffffffffffffffffffffff168373ffffffffffffffffffffffffffffffffffffffff161415610910578060010160009054906101000a900473ffffffffffffffffffffffffffffffffffffffff168460000160006101000a81548173ffffffffffffffffffffffffffffffffffffffff021916908373ffffffffffffffffffffffffffffffffffffffff160217905550610919565b60009150610b4c565b5b600073ffffffffffffffffffffffffffffffffffffffff168160010160009054906101000a900473ffffffffffffffffffffffffffffffffffffffff1673ffffffffffffffffffffffffffffffffffffffff16141515610a44578060000160009054906101000a900473ffffffffffffffffffffffffffffffffffffffff168460030160008360010160009054906101000a900473ffffffffffffffffffffffffffffffffffffffff1673ffffffffffffffffffffffffffffffffffffffff1673ffffffffffffffffffffffffffffffffffffffff16815260200190815260200160002060000160006101000a81548173ffffffffffffffffffffffffffffffffffffffff021916908373ffffffffffffffffffffffffffffffffffffffff160217905550610aac565b8060000160009054906101000a900473ffffffffffffffffffffffffffffffffffffffff168460010160006101000a81548173ffffffffffffffffffffffffffffffffffffffff021916908373ffffffffffffffffffffffffffffffffffffffff1602179055505b610ab584610c79565b8360030160008473ffffffffffffffffffffffffffffffffffffffff1673ffffffffffffffffffffffffffffffffffffffff168152602001908152602001600020600080820160006101000a81549073ffffffffffffffffffffffffffffffffffffffff02191690556001820160006101000a81549073ffffffffffffffffffffffffffffffffffffffff02191690555050600191505b5092915050565b60008260000160009054906101000a900473ffffffffffffffffffffffffffffffffffffffff1673ffffffffffffffffffffffffffffffffffffffff168273ffffffffffffffffffffffffffffffffffffffff161480610c445750600073ffffffffffffffffffffffffffffffffffffffff168360030160008473ffffffffffffffffffffffffffffffffffffffff1673ffffffffffffffffffffffffffffffffffffffff16815260200190815260200160002060000160009054906101000a900473ffffffffffffffffffffffffffffffffffffffff1673ffffffffffffffffffffffffffffffffffffffff1614155b905092915050565b80600201546001826002015401111515610c6257fe5b806002016000815480929190600101919050555050565b60008160020154111515610c8957fe5b80600201600081548092919060019003919050555050565b6020604051908101604052806000815250905600a165627a7a723058209ca44510d0e45ac5fda6b4980dccc6709fcde77da36a60c564a6c34775147a410029",
  "source": "pragma solidity 0.4.18;\n\nimport \"./AddressSet.sol\";\n\n\ncontract SignHash {\n\n    using AddressSet for AddressSet.Data;\n\n    // hash to signers\n    mapping (bytes32 => AddressSet.Data) private signers;\n\n    event Signed(bytes32 indexed hash, address indexed signer);\n    event Revoked(bytes32 indexed hash, address indexed signer);\n\n    function sign(bytes32 hash) public {\n        require(hash != bytes32(0));\n\n        signers[hash].add(msg.sender);\n\n        Signed(hash, msg.sender);\n    }\n\n    function revoke(bytes32 hash) public {\n        require(hash != bytes32(0));\n\n        signers[hash].remove(msg.sender);\n\n        Revoked(hash, msg.sender);\n    }\n\n    function list(bytes32 hash, uint256 maxCount)\n        public\n        view\n        returns (address[] result)\n    {\n        AddressSet.Data storage hashSigners = signers[hash];\n        if (hashSigners.count > 0) {\n            if (maxCount < hashSigners.count) {\n                result = new address[](maxCount);\n            } else {\n                result = new address[](hashSigners.count);\n            }\n\n            address current = hashSigners.head;\n            for (uint256 i = 0; i < result.length; i++) {\n                result[i] = current;\n                current = hashSigners.getNext(current);\n            }\n        }\n    }\n}\n",
  "sourcePath": "/home/js/Projects/js/signhash/signhash-contracts/contracts/SignHash.sol",
  "compiler": {
    "name": "solc",
    "version": "0.4.18+commit.9cf6e910.Emscripten.clang"
  },
  "schemaVersion": "1.0.1",
  "updatedAt": "2017-12-10T21:16:10.579Z"
}