{
  "contractName": "SignHash",
  "abi": [
    {
      "constant": true,
      "inputs": [
        {
          "name": "hash",
          "type": "bytes32"
        },
        {
          "name": "maxCount",
          "type": "uint256"
        }
      ],
      "name": "getSigners",
      "outputs": [
        {
          "name": "result",
          "type": "address[]"
        }
      ],
      "payable": false,
      "stateMutability": "view",
      "type": "function"
    },
    {
      "constant": true,
      "inputs": [
        {
          "name": "signer",
          "type": "address"
        },
        {
          "name": "method",
          "type": "string"
        }
      ],
      "name": "getProof",
      "outputs": [
        {
          "name": "",
          "type": "string"
        }
      ],
      "payable": false,
      "stateMutability": "view",
      "type": "function"
    },
    {
      "constant": false,
      "inputs": [
        {
          "name": "hash",
          "type": "bytes32"
        }
      ],
      "name": "sign",
      "outputs": [],
      "payable": false,
      "stateMutability": "nonpayable",
      "type": "function"
    },
    {
      "constant": false,
      "inputs": [
        {
          "name": "method",
          "type": "string"
        },
        {
          "name": "value",
          "type": "string"
        }
      ],
      "name": "addProof",
      "outputs": [],
      "payable": false,
      "stateMutability": "nonpayable",
      "type": "function"
    },
    {
      "constant": false,
      "inputs": [
        {
          "name": "method",
          "type": "string"
        }
      ],
      "name": "removeProof",
      "outputs": [],
      "payable": false,
      "stateMutability": "nonpayable",
      "type": "function"
    },
    {
      "constant": false,
      "inputs": [
        {
          "name": "hash",
          "type": "bytes32"
        }
      ],
      "name": "revoke",
      "outputs": [],
      "payable": false,
      "stateMutability": "nonpayable",
      "type": "function"
    },
    {
      "anonymous": false,
      "inputs": [
        {
          "indexed": true,
          "name": "hash",
          "type": "bytes32"
        },
        {
          "indexed": true,
          "name": "signer",
          "type": "address"
        }
      ],
      "name": "Signed",
      "type": "event"
    },
    {
      "anonymous": false,
      "inputs": [
        {
          "indexed": true,
          "name": "hash",
          "type": "bytes32"
        },
        {
          "indexed": true,
          "name": "signer",
          "type": "address"
        }
      ],
      "name": "Revoked",
      "type": "event"
    },
    {
      "anonymous": false,
      "inputs": [
        {
          "indexed": true,
          "name": "signer",
          "type": "address"
        },
        {
          "indexed": false,
          "name": "method",
          "type": "string"
        },
        {
          "indexed": false,
          "name": "value",
          "type": "string"
        }
      ],
      "name": "ProofAdded",
      "type": "event"
    },
    {
      "anonymous": false,
      "inputs": [
        {
          "indexed": true,
          "name": "signer",
          "type": "address"
        },
        {
          "indexed": false,
          "name": "method",
          "type": "string"
        }
      ],
      "name": "ProofRemoved",
      "type": "event"
    }
  ],
  "bytecode": "0x6060604052341561000f57600080fd5b6115918061001e6000396000f300606060405260043610610078576000357c0100000000000000000000000000000000000000000000000000000000900463ffffffff16806330a1a80b1461007d57806343d9421a14610102578063799cd333146101f75780637bb0350c1461021e5780637c07e2fc146102be578063b75c7dc61461031b575b600080fd5b341561008857600080fd5b6100ab600480803560001916906020019091908035906020019091905050610342565b6040518080602001828103825283818151815260200191508051906020019060200280838360005b838110156100ee5780820151818401526020810190506100d3565b505050509050019250505060405180910390f35b341561010d57600080fd5b61017c600480803573ffffffffffffffffffffffffffffffffffffffff1690602001909190803590602001908201803590602001908080601f0160208091040260200160405190810160405280939291908181526020018383808284378201915050505050509190505061047c565b6040518080602001828103825283818151815260200191508051906020019080838360005b838110156101bc5780820151818401526020810190506101a1565b50505050905090810190601f1680156101e95780820380516001836020036101000a031916815260200191505b509250505060405180910390f35b341561020257600080fd5b61021c6004808035600019169060200190919050506105cd565b005b341561022957600080fd5b6102bc600480803590602001908201803590602001908080601f0160208091040260200160405190810160405280939291908181526020018383808284378201915050505050509190803590602001908201803590602001908080601f01602080910402602001604051908101604052809392919081815260200183838082843782019150505050505091905050610660565b005b34156102c957600080fd5b610319600480803590602001908201803590602001908080601f01602080910402602001604051908101604052809392919081815260200183838082843782019150505050505091905050610861565b005b341561032657600080fd5b610340600480803560001916906020019091905050610aab565b005b61034a611450565b6000806000806000876000191660001916815260200190815260200160002092506000836002015411156104735782600201548510156103aa57846040518059106103925750595b908082528060200260200182016040525093506103d0565b82600201546040518059106103bc5750595b908082528060200260200182016040525093505b8260000160009054906101000a900473ffffffffffffffffffffffffffffffffffffffff169150600090505b83518110156104725781848281518110151561041457fe5b9060200190602002019073ffffffffffffffffffffffffffffffffffffffff16908173ffffffffffffffffffffffffffffffffffffffff16815250506104638284610b3e90919063ffffffff16565b915080806001019150506103fc565b5b50505092915050565b610484611464565b600160008473ffffffffffffffffffffffffffffffffffffffff1673ffffffffffffffffffffffffffffffffffffffff168152602001908152602001600020826040518082805190602001908083835b6020831015156104f957805182526020820191506020810190506020830392506104d4565b6001836020036101000a03801982511681845116808217855250505050505090500191505090815260200160405180910390208054600181600116156101000203166002900480601f0160208091040260200160405190810160405280929190818152602001828054600181600116156101000203166002900480156105c05780601f10610595576101008083540402835291602001916105c0565b820191906000526020600020905b8154815290600101906020018083116105a357829003601f168201915b5050505050905092915050565b6000600102600019168160001916141515156105e857600080fd5b610614336000808460001916600019168152602001908152602001600020610bad90919063ffffffff16565b503373ffffffffffffffffffffffffffffffffffffffff1681600019167fdc9da68bd73c4161c8f5bc195573e6649390acdb7090a16542862b767eacac5a60405160405180910390a350565b6000825111151561067057600080fd5b6000815111151561068057600080fd5b80600160003373ffffffffffffffffffffffffffffffffffffffff1673ffffffffffffffffffffffffffffffffffffffff168152602001908152602001600020836040518082805190602001908083835b6020831015156106f657805182526020820191506020810190506020830392506106d1565b6001836020036101000a0380198251168184511680821785525050505050509050019150509081526020016040518091039020908051906020019061073c929190611478565b503373ffffffffffffffffffffffffffffffffffffffff167f967a81fb8dbc39bdd0222a448199b528519dace7cf245030352b06219110cac48383604051808060200180602001838103835285818151815260200191508051906020019080838360005b838110156107bb5780820151818401526020810190506107a0565b50505050905090810190601f1680156107e85780820380516001836020036101000a031916815260200191505b50838103825284818151815260200191508051906020019080838360005b83811015610821578082015181840152602081019050610806565b50505050905090810190601f16801561084e5780820380516001836020036101000a031916815260200191505b5094505050505060405180910390a25050565b600080825111151561087257600080fd5b600160003373ffffffffffffffffffffffffffffffffffffffff1673ffffffffffffffffffffffffffffffffffffffff168152602001908152602001600020826040518082805190602001908083835b6020831015156108e757805182526020820191506020810190506020830392506108c2565b6001836020036101000a0380198251168184511680821785525050505050509050019150509081526020016040518091039020905060008180546001816001161561010002031660029004905011151561094057600080fd5b600160003373ffffffffffffffffffffffffffffffffffffffff1673ffffffffffffffffffffffffffffffffffffffff168152602001908152602001600020826040518082805190602001908083835b6020831015156109b55780518252602082019150602081019050602083039250610990565b6001836020036101000a038019825116818451168082178552505050505050905001915050908152602001604051809103902060006109f491906114f8565b3373ffffffffffffffffffffffffffffffffffffffff167f35ac935e2145a5d2057eb6e277a38dcb4e0bad1c7d5941d397be2bcb0c7cc74b836040518080602001828103825283818151815260200191508051906020019080838360005b83811015610a6d578082015181840152602081019050610a52565b50505050905090810190601f168015610a9a5780820380516001836020036101000a031916815260200191505b509250505060405180910390a25050565b600060010260001916816000191614151515610ac657600080fd5b610af2336000808460001916600019168152602001908152602001600020610e4f90919063ffffffff16565b503373ffffffffffffffffffffffffffffffffffffffff1681600019167f5bc2baf870c5baf189838b5e0b0e3b04a3263e2df5d305d1c15f3e6022f5dc4560405160405180910390a350565b60008260030160008373ffffffffffffffffffffffffffffffffffffffff1673ffffffffffffffffffffffffffffffffffffffff16815260200190815260200160002060010160009054906101000a900473ffffffffffffffffffffffffffffffffffffffff16905092915050565b60008073ffffffffffffffffffffffffffffffffffffffff168273ffffffffffffffffffffffffffffffffffffffff1614151515610bea57600080fd5b600073ffffffffffffffffffffffffffffffffffffffff168360000160009054906101000a900473ffffffffffffffffffffffffffffffffffffffff1673ffffffffffffffffffffffffffffffffffffffff161415610c8b57818360000160006101000a81548173ffffffffffffffffffffffffffffffffffffffff021916908373ffffffffffffffffffffffffffffffffffffffff160217905550610df8565b610c958383611302565b1515610dee57818360030160008560010160009054906101000a900473ffffffffffffffffffffffffffffffffffffffff1673ffffffffffffffffffffffffffffffffffffffff1673ffffffffffffffffffffffffffffffffffffffff16815260200190815260200160002060010160006101000a81548173ffffffffffffffffffffffffffffffffffffffff021916908373ffffffffffffffffffffffffffffffffffffffff1602179055508260010160009054906101000a900473ffffffffffffffffffffffffffffffffffffffff168360030160008473ffffffffffffffffffffffffffffffffffffffff1673ffffffffffffffffffffffffffffffffffffffff16815260200190815260200160002060000160006101000a81548173ffffffffffffffffffffffffffffffffffffffff021916908373ffffffffffffffffffffffffffffffffffffffff160217905550610df7565b60009050610e49565b5b818360010160006101000a81548173ffffffffffffffffffffffffffffffffffffffff021916908373ffffffffffffffffffffffffffffffffffffffff160217905550610e44836113fb565b600190505b92915050565b600080600073ffffffffffffffffffffffffffffffffffffffff168373ffffffffffffffffffffffffffffffffffffffff1614151515610e8e57600080fd5b8360030160008473ffffffffffffffffffffffffffffffffffffffff1673ffffffffffffffffffffffffffffffffffffffff1681526020019081526020016000209050600073ffffffffffffffffffffffffffffffffffffffff168160000160009054906101000a900473ffffffffffffffffffffffffffffffffffffffff1673ffffffffffffffffffffffffffffffffffffffff16141515610ffb578060010160009054906101000a900473ffffffffffffffffffffffffffffffffffffffff168460030160008360000160009054906101000a900473ffffffffffffffffffffffffffffffffffffffff1673ffffffffffffffffffffffffffffffffffffffff1673ffffffffffffffffffffffffffffffffffffffff16815260200190815260200160002060010160006101000a81548173ffffffffffffffffffffffffffffffffffffffff021916908373ffffffffffffffffffffffffffffffffffffffff1602179055506110c9565b8360000160009054906101000a900473ffffffffffffffffffffffffffffffffffffffff1673ffffffffffffffffffffffffffffffffffffffff168373ffffffffffffffffffffffffffffffffffffffff1614156110bf578060010160009054906101000a900473ffffffffffffffffffffffffffffffffffffffff168460000160006101000a81548173ffffffffffffffffffffffffffffffffffffffff021916908373ffffffffffffffffffffffffffffffffffffffff1602179055506110c8565b600091506112fb565b5b600073ffffffffffffffffffffffffffffffffffffffff168160010160009054906101000a900473ffffffffffffffffffffffffffffffffffffffff1673ffffffffffffffffffffffffffffffffffffffff161415156111f3578060000160009054906101000a900473ffffffffffffffffffffffffffffffffffffffff168460030160008360010160009054906101000a900473ffffffffffffffffffffffffffffffffffffffff1673ffffffffffffffffffffffffffffffffffffffff1673ffffffffffffffffffffffffffffffffffffffff16815260200190815260200160002060000160006101000a81548173ffffffffffffffffffffffffffffffffffffffff021916908373ffffffffffffffffffffffffffffffffffffffff16021790555061125b565b8060000160009054906101000a900473ffffffffffffffffffffffffffffffffffffffff168460010160006101000a81548173ffffffffffffffffffffffffffffffffffffffff021916908373ffffffffffffffffffffffffffffffffffffffff1602179055505b61126484611428565b8360030160008473ffffffffffffffffffffffffffffffffffffffff1673ffffffffffffffffffffffffffffffffffffffff168152602001908152602001600020600080820160006101000a81549073ffffffffffffffffffffffffffffffffffffffff02191690556001820160006101000a81549073ffffffffffffffffffffffffffffffffffffffff02191690555050600191505b5092915050565b60008260000160009054906101000a900473ffffffffffffffffffffffffffffffffffffffff1673ffffffffffffffffffffffffffffffffffffffff168273ffffffffffffffffffffffffffffffffffffffff1614806113f35750600073ffffffffffffffffffffffffffffffffffffffff168360030160008473ffffffffffffffffffffffffffffffffffffffff1673ffffffffffffffffffffffffffffffffffffffff16815260200190815260200160002060000160009054906101000a900473ffffffffffffffffffffffffffffffffffffffff1673ffffffffffffffffffffffffffffffffffffffff1614155b905092915050565b8060020154600182600201540111151561141157fe5b806002016000815480929190600101919050555050565b6000816002015411151561143857fe5b80600201600081548092919060019003919050555050565b602060405190810160405280600081525090565b602060405190810160405280600081525090565b828054600181600116156101000203166002900490600052602060002090601f016020900481019282601f106114b957805160ff19168380011785556114e7565b828001600101855582156114e7579182015b828111156114e65782518255916020019190600101906114cb565b5b5090506114f49190611540565b5090565b50805460018160011615610100020316600290046000825580601f1061151e575061153d565b601f01602090049060005260206000209081019061153c9190611540565b5b50565b61156291905b8082111561155e576000816000905550600101611546565b5090565b905600a165627a7a7230582047d5051d6eb01b6ef9676b2ed4520cf36a36e56ad2565ad025f6f885a25d38840029",
  "source": "pragma solidity 0.4.18;\n\nimport \"./AddressSet.sol\";\n\n\ncontract SignHash {\n\n    using AddressSet for AddressSet.Data;\n\n    // hash to signers\n    mapping (bytes32 => AddressSet.Data) private signers;\n\n    // signer to proofs (method to value)\n    mapping (address => mapping (string => string)) private proofs;\n\n    event Signed(bytes32 indexed hash, address indexed signer);\n    event Revoked(bytes32 indexed hash, address indexed signer);\n\n    event ProofAdded(address indexed signer, string method, string value);\n    event ProofRemoved(address indexed signer, string method);\n\n    function sign(bytes32 hash) public {\n        require(hash != bytes32(0));\n\n        signers[hash].add(msg.sender);\n\n        Signed(hash, msg.sender);\n    }\n\n    function revoke(bytes32 hash) public {\n        require(hash != bytes32(0));\n\n        signers[hash].remove(msg.sender);\n\n        Revoked(hash, msg.sender);\n    }\n\n    function addProof(string method, string value) public {\n        require(bytes(method).length > 0);\n        require(bytes(value).length > 0);\n\n        proofs[msg.sender][method] = value;\n\n        ProofAdded(msg.sender, method, value);\n    }\n\n    function removeProof(string method) public {\n        require(bytes(method).length > 0);\n\n        string storage value = proofs[msg.sender][method];\n        require(bytes(value).length > 0);\n\n        delete proofs[msg.sender][method];\n\n        ProofRemoved(msg.sender, method);\n    }\n\n    function getSigners(bytes32 hash, uint256 maxCount)\n        public\n        view\n        returns (address[] result)\n    {\n        AddressSet.Data storage hashSigners = signers[hash];\n        if (hashSigners.count > 0) {\n            if (maxCount < hashSigners.count) {\n                result = new address[](maxCount);\n            } else {\n                result = new address[](hashSigners.count);\n            }\n\n            address current = hashSigners.head;\n            for (uint256 i = 0; i < result.length; i++) {\n                result[i] = current;\n                current = hashSigners.getNext(current);\n            }\n        }\n    }\n\n    function getProof(address signer, string method)\n        public\n        view\n        returns (string)\n    {\n        return proofs[signer][method];\n    }\n}\n",
  "sourcePath": "/home/js/Projects/js/signhash/signhash-contracts/contracts/SignHash.sol",
  "compiler": {
    "name": "solc",
    "version": "0.4.18+commit.9cf6e910.Emscripten.clang"
  },
  "schemaVersion": "1.0.1",
  "updatedAt": "2017-11-26T22:40:40.962Z"
}