{
  "contractName": "TipsWallet",
  "abi": [
    {
      "constant": true,
      "inputs": [
        {
          "name": "",
          "type": "uint256"
        }
      ],
      "name": "owners",
      "outputs": [
        {
          "name": "",
          "type": "address"
        }
      ],
      "payable": false,
      "stateMutability": "view",
      "type": "function"
    },
    {
      "constant": false,
      "inputs": [],
      "name": "cancelRecovery",
      "outputs": [],
      "payable": false,
      "stateMutability": "nonpayable",
      "type": "function"
    },
    {
      "constant": true,
      "inputs": [
        {
          "name": "account",
          "type": "address"
        }
      ],
      "name": "isOwner",
      "outputs": [
        {
          "name": "",
          "type": "bool"
        }
      ],
      "payable": false,
      "stateMutability": "view",
      "type": "function"
    },
    {
      "constant": false,
      "inputs": [
        {
          "name": "v",
          "type": "uint8[]"
        },
        {
          "name": "r",
          "type": "bytes32[]"
        },
        {
          "name": "s",
          "type": "bytes32[]"
        },
        {
          "name": "newOwners",
          "type": "address[]"
        }
      ],
      "name": "transferOwnership",
      "outputs": [],
      "payable": false,
      "stateMutability": "nonpayable",
      "type": "function"
    },
    {
      "constant": false,
      "inputs": [
        {
          "name": "newOwners",
          "type": "address[]"
        }
      ],
      "name": "confirmRecovery",
      "outputs": [],
      "payable": false,
      "stateMutability": "nonpayable",
      "type": "function"
    },
    {
      "constant": true,
      "inputs": [],
      "name": "recoveryHash",
      "outputs": [
        {
          "name": "",
          "type": "bytes32"
        }
      ],
      "payable": false,
      "stateMutability": "view",
      "type": "function"
    },
    {
      "constant": true,
      "inputs": [],
      "name": "recoveryBlock",
      "outputs": [
        {
          "name": "",
          "type": "uint256"
        }
      ],
      "payable": false,
      "stateMutability": "view",
      "type": "function"
    },
    {
      "constant": true,
      "inputs": [],
      "name": "recoveryBlockOffset",
      "outputs": [
        {
          "name": "",
          "type": "uint256"
        }
      ],
      "payable": false,
      "stateMutability": "view",
      "type": "function"
    },
    {
      "constant": true,
      "inputs": [],
      "name": "nonce",
      "outputs": [
        {
          "name": "",
          "type": "uint256"
        }
      ],
      "payable": false,
      "stateMutability": "view",
      "type": "function"
    },
    {
      "constant": false,
      "inputs": [
        {
          "name": "newOwners",
          "type": "address[]"
        }
      ],
      "name": "startRecovery",
      "outputs": [],
      "payable": false,
      "stateMutability": "nonpayable",
      "type": "function"
    },
    {
      "constant": true,
      "inputs": [],
      "name": "listOwners",
      "outputs": [
        {
          "name": "",
          "type": "address[]"
        }
      ],
      "payable": false,
      "stateMutability": "view",
      "type": "function"
    },
    {
      "constant": false,
      "inputs": [
        {
          "name": "v",
          "type": "uint8[]"
        },
        {
          "name": "r",
          "type": "bytes32[]"
        },
        {
          "name": "s",
          "type": "bytes32[]"
        },
        {
          "name": "destination",
          "type": "address"
        },
        {
          "name": "value",
          "type": "uint256"
        },
        {
          "name": "data",
          "type": "bytes"
        }
      ],
      "name": "execute",
      "outputs": [],
      "payable": false,
      "stateMutability": "nonpayable",
      "type": "function"
    },
    {
      "inputs": [
        {
          "name": "_owners",
          "type": "address[]"
        },
        {
          "name": "_recoveryBlockOffset",
          "type": "uint256"
        }
      ],
      "payable": false,
      "stateMutability": "nonpayable",
      "type": "constructor"
    },
    {
      "payable": true,
      "stateMutability": "payable",
      "type": "fallback"
    },
    {
      "anonymous": false,
      "inputs": [
        {
          "indexed": true,
          "name": "from",
          "type": "address"
        },
        {
          "indexed": false,
          "name": "newOwners",
          "type": "address[]"
        }
      ],
      "name": "RecoveryStarted",
      "type": "event"
    },
    {
      "anonymous": false,
      "inputs": [
        {
          "indexed": true,
          "name": "from",
          "type": "address"
        }
      ],
      "name": "RecoveryCancelled",
      "type": "event"
    },
    {
      "anonymous": false,
      "inputs": [
        {
          "indexed": true,
          "name": "from",
          "type": "address"
        },
        {
          "indexed": false,
          "name": "newOwners",
          "type": "address[]"
        }
      ],
      "name": "RecoveryConfirmed",
      "type": "event"
    },
    {
      "anonymous": false,
      "inputs": [
        {
          "indexed": false,
          "name": "previousOwners",
          "type": "address[]"
        },
        {
          "indexed": false,
          "name": "newOwners",
          "type": "address[]"
        }
      ],
      "name": "OwnershipTransferred",
      "type": "event"
    },
    {
      "anonymous": false,
      "inputs": [
        {
          "indexed": true,
          "name": "from",
          "type": "address"
        },
        {
          "indexed": false,
          "name": "value",
          "type": "uint256"
        }
      ],
      "name": "Deposited",
      "type": "event"
    },
    {
      "anonymous": false,
      "inputs": [
        {
          "indexed": true,
          "name": "destination",
          "type": "address"
        },
        {
          "indexed": false,
          "name": "nonce",
          "type": "uint256"
        },
        {
          "indexed": false,
          "name": "value",
          "type": "uint256"
        },
        {
          "indexed": false,
          "name": "data",
          "type": "bytes"
        }
      ],
      "name": "Executed",
      "type": "event"
    }
  ],
  "bytecode": "0x606060405234156200001057600080fd5b6040516200169638038062001696833981016040528080518201919060200180519060200190919050508181838480600081511115156200005057600080fd5b8160019080519060200190620000689291906200007d565b50505050806002819055505050505062000152565b828054828255906000526020600020908101928215620000f9579160200282015b82811115620000f85782518260006101000a81548173ffffffffffffffffffffffffffffffffffffffff021916908373ffffffffffffffffffffffffffffffffffffffff160217905550916020019190600101906200009e565b5b5090506200010891906200010c565b5090565b6200014f91905b808211156200014b57600081816101000a81549073ffffffffffffffffffffffffffffffffffffffff02191690555060010162000113565b5090565b90565b61153480620001626000396000f3006060604052600436106100ba576000357c0100000000000000000000000000000000000000000000000000000000900463ffffffff168063025e7c27146101145780630ba234d6146101775780632f54bf6e1461018c57806335d9c92d146101dd57806352f2aeac146102f75780636102495c14610351578063794ee3d9146103825780637a7c1e52146103ab578063affed0e0146103d4578063b1b3a744146103fd578063ed60c0fc14610457578063f12d394f146104c1575b6000341115610112573373ffffffffffffffffffffffffffffffffffffffff167f2da466a7b24304f47e87fa2e1e5a81b9831ce54fec19055ce277ca2f39ba42c4346040518082815260200191505060405180910390a25b005b341561011f57600080fd5b6101356004808035906020019091905050610606565b604051808273ffffffffffffffffffffffffffffffffffffffff1673ffffffffffffffffffffffffffffffffffffffff16815260200191505060405180910390f35b341561018257600080fd5b61018a610645565b005b341561019757600080fd5b6101c3600480803573ffffffffffffffffffffffffffffffffffffffff169060200190919050506106b7565b604051808215151515815260200191505060405180910390f35b34156101e857600080fd5b6102f560048080359060200190820180359060200190808060200260200160405190810160405280939291908181526020018383602002808284378201915050505050509190803590602001908201803590602001908080602002602001604051908101604052809392919081815260200183836020028082843782019150505050505091908035906020019082018035906020019080806020026020016040519081016040528093929190818152602001838360200280828437820191505050505050919080359060200190820180359060200190808060200260200160405190810160405280939291908181526020018383602002808284378201915050505050509190505061075b565b005b341561030257600080fd5b61034f600480803590602001908201803590602001908080602002602001604051908101604052809392919081815260200183836020028082843782019150505050505091905050610be5565b005b341561035c57600080fd5b610364610d2c565b60405180826000191660001916815260200191505060405180910390f35b341561038d57600080fd5b610395610d32565b6040518082815260200191505060405180910390f35b34156103b657600080fd5b6103be610d38565b6040518082815260200191505060405180910390f35b34156103df57600080fd5b6103e7610d3e565b6040518082815260200191505060405180910390f35b341561040857600080fd5b610455600480803590602001908201803590602001908080602002602001604051908101604052809392919081815260200183836020028082843782019150505050505091905050610d44565b005b341561046257600080fd5b61046a610e50565b6040518080602001828103825283818151815260200191508051906020019060200280838360005b838110156104ad578082015181840152602081019050610492565b505050509050019250505060405180910390f35b34156104cc57600080fd5b610604600480803590602001908201803590602001908080602002602001604051908101604052809392919081815260200183836020028082843782019150505050505091908035906020019082018035906020019080806020026020016040519081016040528093929190818152602001838360200280828437820191505050505050919080359060200190820180359060200190808060200260200160405190810160405280939291908181526020018383602002808284378201915050505050509190803573ffffffffffffffffffffffffffffffffffffffff1690602001909190803590602001909190803590602001908201803590602001908080601f01602080910402602001604051908101604052809392919081815260200183838082843782019150505050505091905050610ee4565b005b60018181548110151561061557fe5b90600052602060002090016000915054906101000a900473ffffffffffffffffffffffffffffffffffffffff1681565b61064e336106b7565b151561065957600080fd5b600060035411151561066a57600080fd5b610672611419565b3373ffffffffffffffffffffffffffffffffffffffff167f8154b6c5e1fc90d44b49808ef93f9739148d0821411890f8cd684385e24b9f1e60405160405180910390a2565b600080600090505b600180549050811015610750576001818154811015156106db57fe5b906000526020600020900160009054906101000a900473ffffffffffffffffffffffffffffffffffffffff1673ffffffffffffffffffffffffffffffffffffffff168373ffffffffffffffffffffffffffffffffffffffff1614156107435760019150610755565b80806001019150506106bf565b600091505b50919050565b806000815111151561076c57600080fd5b84848460197f01000000000000000000000000000000000000000000000000000000000000000260007f010000000000000000000000000000000000000000000000000000000000000002308760005460405180867effffffffffffffffffffffffffffffffffffffffffffffffffffffffffffff19167effffffffffffffffffffffffffffffffffffffffffffffffffffffffffffff19168152600101857effffffffffffffffffffffffffffffffffffffffffffffffffffffffffffff19167effffffffffffffffffffffffffffffffffffffffffffffffffffffffffffff191681526001018473ffffffffffffffffffffffffffffffffffffffff1673ffffffffffffffffffffffffffffffffffffffff166c01000000000000000000000000028152601401838051906020019060200280838360005b838110156108c15780820151818401526020810190506108a6565b5050505090500182815260200195505050505050604051809103902060008060018054905086511480156108fa57506001805490508551145b801561090b57506001805490508451145b151561091657600080fd5b8260405180807f19457468657265756d205369676e6564204d6573736167653a0a333200000000815250601c01826000191660001916815260200191505060405180910390209150600090505b600180549050811015610abc5760018181548110151561097f57fe5b906000526020600020900160009054906101000a900473ffffffffffffffffffffffffffffffffffffffff1673ffffffffffffffffffffffffffffffffffffffff1660018388848151811015156109d257fe5b9060200190602002015188858151811015156109ea57fe5b906020019060200201518886815181101515610a0257fe5b90602001906020020151604051600081526020016040526000604051602001526040518085600019166000191681526020018460ff1660ff16815260200183600019166000191681526020018260001916600019168152602001945050505050602060405160208103908084039060008661646e5a03f11515610a8457600080fd5b50506020604051035173ffffffffffffffffffffffffffffffffffffffff16141515610aaf57600080fd5b8080600101915050610963565b7fe62c04bb3499d4f432a50e07318d42861c4865afb22ee4cfe403d4f9455070906001896040518080602001806020018381038352858181548152602001915080548015610b5f57602002820191906000526020600020905b8160009054906101000a900473ffffffffffffffffffffffffffffffffffffffff1673ffffffffffffffffffffffffffffffffffffffff1681526020019060010190808311610b15575b5050838103825284818151815260200191508051906020019060200280838360005b83811015610b9c578082015181840152602081019050610b81565b5050505090500194505050505060405180910390a18760019080519060200190610bc7929190611427565b50600160008082825401925050819055505050505050505050505050565b610bee336106b7565b1515610bf957600080fd5b6000600354111515610c0a57600080fd5b600254600354014310151515610c1f57600080fd5b80600454600019168160405180828051906020019060200280838360005b83811015610c58578082015181840152602081019050610c3d565b50505050905001915050604051809103902060001916141515610c7a57600080fd5b8160019080519060200190610c90929190611427565b50610c99611419565b3373ffffffffffffffffffffffffffffffffffffffff167fbb05e5746c88b170afb20d94797c3645f9822720fc2601b59137820c2fa5c984836040518080602001828103825283818151815260200191508051906020019060200280838360005b83811015610d15578082015181840152602081019050610cfa565b505050509050019250505060405180910390a25050565b60045481565b60035481565b60025481565b60005481565b610d4d336106b7565b1515610d5857600080fd5b8060008151111515610d6957600080fd5b436003819055508160405180828051906020019060200280838360005b83811015610da1578082015181840152602081019050610d86565b505050509050019150506040518091039020600481600019169055503373ffffffffffffffffffffffffffffffffffffffff167fb1b6ebc5dd19ea5b01feac6392231a6142251ad4951bdb0491c58485dffc2883836040518080602001828103825283818151815260200191508051906020019060200280838360005b83811015610e39578082015181840152602081019050610e1e565b505050509050019250505060405180910390a25050565b610e586114b1565b6001805480602002602001604051908101604052809291908181526020018280548015610eda57602002820191906000526020600020905b8160009054906101000a900473ffffffffffffffffffffffffffffffffffffffff1673ffffffffffffffffffffffffffffffffffffffff1681526020019060010190808311610e90575b5050505050905090565b85858560197f01000000000000000000000000000000000000000000000000000000000000000260007f0100000000000000000000000000000000000000000000000000000000000000023088888860005460405180887effffffffffffffffffffffffffffffffffffffffffffffffffffffffffffff19167effffffffffffffffffffffffffffffffffffffffffffffffffffffffffffff19168152600101877effffffffffffffffffffffffffffffffffffffffffffffffffffffffffffff19167effffffffffffffffffffffffffffffffffffffffffffffffffffffffffffff191681526001018673ffffffffffffffffffffffffffffffffffffffff1673ffffffffffffffffffffffffffffffffffffffff166c010000000000000000000000000281526014018573ffffffffffffffffffffffffffffffffffffffff1673ffffffffffffffffffffffffffffffffffffffff166c0100000000000000000000000002815260140184815260200183805190602001908083835b6020831015156110875780518252602082019150602081019050602083039250611062565b6001836020036101000a038019825116818451168082178552505050505050905001828152602001975050505050505050604051809103902060008060018054905086511480156110dd57506001805490508551145b80156110ee57506001805490508451145b15156110f957600080fd5b8260405180807f19457468657265756d205369676e6564204d6573736167653a0a333200000000815250601c01826000191660001916815260200191505060405180910390209150600090505b60018054905081101561129f5760018181548110151561116257fe5b906000526020600020900160009054906101000a900473ffffffffffffffffffffffffffffffffffffffff1673ffffffffffffffffffffffffffffffffffffffff1660018388848151811015156111b557fe5b9060200190602002015188858151811015156111cd57fe5b9060200190602002015188868151811015156111e557fe5b90602001906020020151604051600081526020016040526000604051602001526040518085600019166000191681526020018460ff1660ff16815260200183600019166000191681526020018260001916600019168152602001945050505050602060405160208103908084039060008661646e5a03f1151561126757600080fd5b50506020604051035173ffffffffffffffffffffffffffffffffffffffff1614151561129257600080fd5b8080600101915050611146565b8873ffffffffffffffffffffffffffffffffffffffff167f30dc9a249e121dc7ec74559d42f94e60bb91eb25e06df470ed1be2a02a9d7a046000548a8a6040518084815260200183815260200180602001828103825283818151815260200191508051906020019080838360005b8381101561132857808201518184015260208101905061130d565b50505050905090810190601f1680156113555780820380516001836020036101000a031916815260200191505b5094505050505060405180910390a28873ffffffffffffffffffffffffffffffffffffffff16888860405180828051906020019080838360005b838110156113aa57808201518184015260208101905061138f565b50505050905090810190601f1680156113d75780820380516001836020036101000a031916815260200191505b5091505060006040518083038185876187965a03f19250505015156113fb57600080fd5b60016000808282540192505081905550505050505050505050505050565b600360009055600460009055565b8280548282559060005260206000209081019282156114a0579160200282015b8281111561149f5782518260006101000a81548173ffffffffffffffffffffffffffffffffffffffff021916908373ffffffffffffffffffffffffffffffffffffffff16021790555091602001919060010190611447565b5b5090506114ad91906114c5565b5090565b602060405190810160405280600081525090565b61150591905b8082111561150157600081816101000a81549073ffffffffffffffffffffffffffffffffffffffff0219169055506001016114cb565b5090565b905600a165627a7a72305820deaf537190277edfbf6b4105f9ada7de7a3699c4ba74333370866c59f91f3d3a0029",
  "source": "pragma solidity 0.4.18;\n\nimport \"./MultiSig/MultiSig.sol\";\nimport \"./MultiSig/TransferableMultiSig.sol\";\nimport \"./MultiSig/RecoverableMultiSig.sol\";\n\n\ncontract TipsWallet is MultiSig, TransferableMultiSig, RecoverableMultiSig {\n    /* solhint-disable no-empty-blocks */\n    function TipsWallet(address[] _owners, uint256 _recoveryBlockOffset)\n        public\n        MultiSig(_owners)\n        TransferableMultiSig(_owners)\n        RecoverableMultiSig(_owners, _recoveryBlockOffset)\n    {\n    }\n    /* solhint-enable no-empty-blocks */\n}\n",
  "sourcePath": "/home/js/Projects/js/signhash/signhash-contracts/contracts/TipsWallet.sol",
  "compiler": {
    "name": "solc",
    "version": "0.4.18+commit.9cf6e910.Emscripten.clang"
  },
  "schemaVersion": "1.0.1",
  "updatedAt": "2017-12-10T21:16:10.581Z"
}