{
  "contractName": "TipsWallet",
  "abi": [
    {
      "constant": true,
      "inputs": [
        {
          "name": "",
          "type": "uint256"
        }
      ],
      "name": "owners",
      "outputs": [
        {
          "name": "",
          "type": "address"
        }
      ],
      "payable": false,
      "stateMutability": "view",
      "type": "function"
    },
    {
      "constant": false,
      "inputs": [],
      "name": "cancelRecovery",
      "outputs": [],
      "payable": false,
      "stateMutability": "nonpayable",
      "type": "function"
    },
    {
      "constant": true,
      "inputs": [],
      "name": "DEFAULT_RECOVERY_CONFIRMATIONS",
      "outputs": [
        {
          "name": "",
          "type": "uint256"
        }
      ],
      "payable": false,
      "stateMutability": "view",
      "type": "function"
    },
    {
      "constant": true,
      "inputs": [],
      "name": "recoveryConfirmations",
      "outputs": [
        {
          "name": "",
          "type": "uint256"
        }
      ],
      "payable": false,
      "stateMutability": "view",
      "type": "function"
    },
    {
      "constant": true,
      "inputs": [
        {
          "name": "account",
          "type": "address"
        }
      ],
      "name": "isOwner",
      "outputs": [
        {
          "name": "",
          "type": "bool"
        }
      ],
      "payable": false,
      "stateMutability": "view",
      "type": "function"
    },
    {
      "constant": false,
      "inputs": [
        {
          "name": "v",
          "type": "uint8[]"
        },
        {
          "name": "r",
          "type": "bytes32[]"
        },
        {
          "name": "s",
          "type": "bytes32[]"
        },
        {
          "name": "newOwners",
          "type": "address[]"
        }
      ],
      "name": "transferOwnership",
      "outputs": [],
      "payable": false,
      "stateMutability": "nonpayable",
      "type": "function"
    },
    {
      "constant": false,
      "inputs": [
        {
          "name": "newOwners",
          "type": "address[]"
        }
      ],
      "name": "confirmRecovery",
      "outputs": [],
      "payable": false,
      "stateMutability": "nonpayable",
      "type": "function"
    },
    {
      "constant": true,
      "inputs": [],
      "name": "recoveryHash",
      "outputs": [
        {
          "name": "",
          "type": "bytes32"
        }
      ],
      "payable": false,
      "stateMutability": "view",
      "type": "function"
    },
    {
      "constant": true,
      "inputs": [],
      "name": "recoveryBlock",
      "outputs": [
        {
          "name": "",
          "type": "uint256"
        }
      ],
      "payable": false,
      "stateMutability": "view",
      "type": "function"
    },
    {
      "constant": true,
      "inputs": [],
      "name": "nonce",
      "outputs": [
        {
          "name": "",
          "type": "uint256"
        }
      ],
      "payable": false,
      "stateMutability": "view",
      "type": "function"
    },
    {
      "constant": false,
      "inputs": [
        {
          "name": "newOwners",
          "type": "address[]"
        }
      ],
      "name": "startRecovery",
      "outputs": [],
      "payable": false,
      "stateMutability": "nonpayable",
      "type": "function"
    },
    {
      "constant": true,
      "inputs": [],
      "name": "listOwners",
      "outputs": [
        {
          "name": "",
          "type": "address[]"
        }
      ],
      "payable": false,
      "stateMutability": "view",
      "type": "function"
    },
    {
      "constant": false,
      "inputs": [
        {
          "name": "v",
          "type": "uint8[]"
        },
        {
          "name": "r",
          "type": "bytes32[]"
        },
        {
          "name": "s",
          "type": "bytes32[]"
        },
        {
          "name": "destination",
          "type": "address"
        },
        {
          "name": "value",
          "type": "uint256"
        },
        {
          "name": "data",
          "type": "bytes"
        }
      ],
      "name": "execute",
      "outputs": [],
      "payable": false,
      "stateMutability": "nonpayable",
      "type": "function"
    },
    {
      "inputs": [
        {
          "name": "_owners",
          "type": "address[]"
        }
      ],
      "payable": false,
      "stateMutability": "nonpayable",
      "type": "constructor"
    },
    {
      "payable": true,
      "stateMutability": "payable",
      "type": "fallback"
    },
    {
      "anonymous": false,
      "inputs": [
        {
          "indexed": true,
          "name": "from",
          "type": "address"
        },
        {
          "indexed": false,
          "name": "newOwners",
          "type": "address[]"
        }
      ],
      "name": "RecoveryStarted",
      "type": "event"
    },
    {
      "anonymous": false,
      "inputs": [
        {
          "indexed": false,
          "name": "previousOwners",
          "type": "address[]"
        },
        {
          "indexed": false,
          "name": "newOwners",
          "type": "address[]"
        }
      ],
      "name": "OwnershipTransferred",
      "type": "event"
    },
    {
      "anonymous": false,
      "inputs": [
        {
          "indexed": true,
          "name": "destination",
          "type": "address"
        },
        {
          "indexed": false,
          "name": "nonce",
          "type": "uint256"
        },
        {
          "indexed": false,
          "name": "value",
          "type": "uint256"
        },
        {
          "indexed": false,
          "name": "data",
          "type": "bytes"
        }
      ],
      "name": "Executed",
      "type": "event"
    }
  ],
  "bytecode": "0x606060405234156200001057600080fd5b6040516200150e3803806200150e83398101604052808051820191905050806207a120818080600081511115156200004757600080fd5b81600190805190602001906200005f92919062000073565b505050508060028190555050505062000148565b828054828255906000526020600020908101928215620000ef579160200282015b82811115620000ee5782518260006101000a81548173ffffffffffffffffffffffffffffffffffffffff021916908373ffffffffffffffffffffffffffffffffffffffff1602179055509160200191906001019062000094565b5b509050620000fe919062000102565b5090565b6200014591905b808211156200014157600081816101000a81549073ffffffffffffffffffffffffffffffffffffffff02191690555060010162000109565b5090565b90565b6113b680620001586000396000f3006060604052600436106100c5576000357c0100000000000000000000000000000000000000000000000000000000900463ffffffff168063025e7c27146100c75780630ba234d61461012a5780631e6625fa1461013f5780632e737f76146101685780632f54bf6e1461019157806335d9c92d146101e257806352f2aeac146102fc5780636102495c14610356578063794ee3d914610387578063affed0e0146103b0578063b1b3a744146103d9578063ed60c0fc14610433578063f12d394f1461049d575b005b34156100d257600080fd5b6100e860048080359060200190919050506105e2565b604051808273ffffffffffffffffffffffffffffffffffffffff1673ffffffffffffffffffffffffffffffffffffffff16815260200191505060405180910390f35b341561013557600080fd5b61013d610621565b005b341561014a57600080fd5b610152610650565b6040518082815260200191505060405180910390f35b341561017357600080fd5b61017b610657565b6040518082815260200191505060405180910390f35b341561019c57600080fd5b6101c8600480803573ffffffffffffffffffffffffffffffffffffffff1690602001909190505061065d565b604051808215151515815260200191505060405180910390f35b34156101ed57600080fd5b6102fa600480803590602001908201803590602001908080602002602001604051908101604052809392919081815260200183836020028082843782019150505050505091908035906020019082018035906020019080806020026020016040519081016040528093929190818152602001838360200280828437820191505050505050919080359060200190820180359060200190808060200260200160405190810160405280939291908181526020018383602002808284378201915050505050509190803590602001908201803590602001908080602002602001604051908101604052809392919081815260200183836020028082843782019150505050505091905050610701565b005b341561030757600080fd5b610354600480803590602001908201803590602001908080602002602001604051908101604052809392919081815260200183836020028082843782019150505050505091905050610b8b565b005b341561036157600080fd5b610369610c43565b60405180826000191660001916815260200191505060405180910390f35b341561039257600080fd5b61039a610c49565b6040518082815260200191505060405180910390f35b34156103bb57600080fd5b6103c3610c4f565b6040518082815260200191505060405180910390f35b34156103e457600080fd5b610431600480803590602001908201803590602001908080602002602001604051908101604052809392919081815260200183836020028082843782019150505050505091905050610c55565b005b341561043e57600080fd5b610446610cd2565b6040518080602001828103825283818151815260200191508051906020019060200280838360005b8381101561048957808201518184015260208101905061046e565b505050509050019250505060405180910390f35b34156104a857600080fd5b6105e0600480803590602001908201803590602001908080602002602001604051908101604052809392919081815260200183836020028082843782019150505050505091908035906020019082018035906020019080806020026020016040519081016040528093929190818152602001838360200280828437820191505050505050919080359060200190820180359060200190808060200260200160405190810160405280939291908181526020018383602002808284378201915050505050509190803573ffffffffffffffffffffffffffffffffffffffff1690602001909190803590602001909190803590602001908201803590602001908080601f01602080910402602001604051908101604052809392919081815260200183838082843782019150505050505091905050610d66565b005b6001818154811015156105f157fe5b90600052602060002090016000915054906101000a900473ffffffffffffffffffffffffffffffffffffffff1681565b61062a3361065d565b151561063557600080fd5b600060035411151561064657600080fd5b61064e61129b565b565b6207a12081565b60025481565b600080600090505b6001805490508110156106f65760018181548110151561068157fe5b906000526020600020900160009054906101000a900473ffffffffffffffffffffffffffffffffffffffff1673ffffffffffffffffffffffffffffffffffffffff168373ffffffffffffffffffffffffffffffffffffffff1614156106e957600191506106fb565b8080600101915050610665565b600091505b50919050565b806000815111151561071257600080fd5b84848460197f01000000000000000000000000000000000000000000000000000000000000000260007f010000000000000000000000000000000000000000000000000000000000000002308760005460405180867effffffffffffffffffffffffffffffffffffffffffffffffffffffffffffff19167effffffffffffffffffffffffffffffffffffffffffffffffffffffffffffff19168152600101857effffffffffffffffffffffffffffffffffffffffffffffffffffffffffffff19167effffffffffffffffffffffffffffffffffffffffffffffffffffffffffffff191681526001018473ffffffffffffffffffffffffffffffffffffffff1673ffffffffffffffffffffffffffffffffffffffff166c01000000000000000000000000028152601401838051906020019060200280838360005b8381101561086757808201518184015260208101905061084c565b5050505090500182815260200195505050505050604051809103902060008060018054905086511480156108a057506001805490508551145b80156108b157506001805490508451145b15156108bc57600080fd5b8260405180807f19457468657265756d205369676e6564204d6573736167653a0a333200000000815250601c01826000191660001916815260200191505060405180910390209150600090505b600180549050811015610a625760018181548110151561092557fe5b906000526020600020900160009054906101000a900473ffffffffffffffffffffffffffffffffffffffff1673ffffffffffffffffffffffffffffffffffffffff16600183888481518110151561097857fe5b90602001906020020151888581518110151561099057fe5b9060200190602002015188868151811015156109a857fe5b90602001906020020151604051600081526020016040526000604051602001526040518085600019166000191681526020018460ff1660ff16815260200183600019166000191681526020018260001916600019168152602001945050505050602060405160208103908084039060008661646e5a03f11515610a2a57600080fd5b50506020604051035173ffffffffffffffffffffffffffffffffffffffff16141515610a5557600080fd5b8080600101915050610909565b7fe62c04bb3499d4f432a50e07318d42861c4865afb22ee4cfe403d4f9455070906001896040518080602001806020018381038352858181548152602001915080548015610b0557602002820191906000526020600020905b8160009054906101000a900473ffffffffffffffffffffffffffffffffffffffff1673ffffffffffffffffffffffffffffffffffffffff1681526020019060010190808311610abb575b5050838103825284818151815260200191508051906020019060200280838360005b83811015610b42578082015181840152602081019050610b27565b5050505090500194505050505060405180910390a18760019080519060200190610b6d9291906112a9565b50600160008082825401925050819055505050505050505050505050565b610b943361065d565b1515610b9f57600080fd5b6000600354111515610bb057600080fd5b600254600354014310151515610bc557600080fd5b80600454600019168160405180828051906020019060200280838360005b83811015610bfe578082015181840152602081019050610be3565b50505050905001915050604051809103902060001916141515610c2057600080fd5b8160019080519060200190610c369291906112a9565b50610c3f61129b565b5050565b60045481565b60035481565b60005481565b610c5e3361065d565b1515610c6957600080fd5b8060008151111515610c7a57600080fd5b436003819055508160405180828051906020019060200280838360005b83811015610cb2578082015181840152602081019050610c97565b505050509050019150506040518091039020600481600019169055505050565b610cda611333565b6001805480602002602001604051908101604052809291908181526020018280548015610d5c57602002820191906000526020600020905b8160009054906101000a900473ffffffffffffffffffffffffffffffffffffffff1673ffffffffffffffffffffffffffffffffffffffff1681526020019060010190808311610d12575b5050505050905090565b85858560197f01000000000000000000000000000000000000000000000000000000000000000260007f0100000000000000000000000000000000000000000000000000000000000000023088888860005460405180887effffffffffffffffffffffffffffffffffffffffffffffffffffffffffffff19167effffffffffffffffffffffffffffffffffffffffffffffffffffffffffffff19168152600101877effffffffffffffffffffffffffffffffffffffffffffffffffffffffffffff19167effffffffffffffffffffffffffffffffffffffffffffffffffffffffffffff191681526001018673ffffffffffffffffffffffffffffffffffffffff1673ffffffffffffffffffffffffffffffffffffffff166c010000000000000000000000000281526014018573ffffffffffffffffffffffffffffffffffffffff1673ffffffffffffffffffffffffffffffffffffffff166c0100000000000000000000000002815260140184815260200183805190602001908083835b602083101515610f095780518252602082019150602081019050602083039250610ee4565b6001836020036101000a03801982511681845116808217855250505050505090500182815260200197505050505050505060405180910390206000806001805490508651148015610f5f57506001805490508551145b8015610f7057506001805490508451145b1515610f7b57600080fd5b8260405180807f19457468657265756d205369676e6564204d6573736167653a0a333200000000815250601c01826000191660001916815260200191505060405180910390209150600090505b60018054905081101561112157600181815481101515610fe457fe5b906000526020600020900160009054906101000a900473ffffffffffffffffffffffffffffffffffffffff1673ffffffffffffffffffffffffffffffffffffffff16600183888481518110151561103757fe5b90602001906020020151888581518110151561104f57fe5b90602001906020020151888681518110151561106757fe5b90602001906020020151604051600081526020016040526000604051602001526040518085600019166000191681526020018460ff1660ff16815260200183600019166000191681526020018260001916600019168152602001945050505050602060405160208103908084039060008661646e5a03f115156110e957600080fd5b50506020604051035173ffffffffffffffffffffffffffffffffffffffff1614151561111457600080fd5b8080600101915050610fc8565b8873ffffffffffffffffffffffffffffffffffffffff167f30dc9a249e121dc7ec74559d42f94e60bb91eb25e06df470ed1be2a02a9d7a046000548a8a6040518084815260200183815260200180602001828103825283818151815260200191508051906020019080838360005b838110156111aa57808201518184015260208101905061118f565b50505050905090810190601f1680156111d75780820380516001836020036101000a031916815260200191505b5094505050505060405180910390a28873ffffffffffffffffffffffffffffffffffffffff16888860405180828051906020019080838360005b8381101561122c578082015181840152602081019050611211565b50505050905090810190601f1680156112595780820380516001836020036101000a031916815260200191505b5091505060006040518083038185876187965a03f192505050151561127d57600080fd5b60016000808282540192505081905550505050505050505050505050565b600360009055600460009055565b828054828255906000526020600020908101928215611322579160200282015b828111156113215782518260006101000a81548173ffffffffffffffffffffffffffffffffffffffff021916908373ffffffffffffffffffffffffffffffffffffffff160217905550916020019190600101906112c9565b5b50905061132f9190611347565b5090565b602060405190810160405280600081525090565b61138791905b8082111561138357600081816101000a81549073ffffffffffffffffffffffffffffffffffffffff02191690555060010161134d565b5090565b905600a165627a7a723058207f5cc5bdffa9f2ee97db17a9e3f8da8f8fa707f754b1d4508e7c1149698bda090029",
  "source": "pragma solidity 0.4.18;\n\nimport \"./MultiSig/RecoverableMultiSig.sol\";\n\n\ncontract TipsWallet is RecoverableMultiSig {\n\n    uint256 public constant DEFAULT_RECOVERY_CONFIRMATIONS = 500 * 1000;\n\n    /* solhint-disable no-empty-blocks */\n    function TipsWallet(address[] _owners)\n        public\n        RecoverableMultiSig(_owners, DEFAULT_RECOVERY_CONFIRMATIONS)\n    {\n    }\n    /* solhint-enable no-empty-blocks */\n}\n",
  "sourcePath": "/home/js/Projects/js/signhash/signhash-contracts/contracts/TipsWallet.sol",
  "compiler": {
    "name": "solc",
    "version": "0.4.18+commit.9cf6e910.Emscripten.clang"
  },
  "schemaVersion": "1.0.1",
  "updatedAt": "2017-11-26T22:40:40.979Z"
}