{
  "contractName": "TipsWallet",
  "abi": [
    {
      "constant": true,
      "inputs": [
        {
          "name": "",
          "type": "uint256"
        }
      ],
      "name": "owners",
      "outputs": [
        {
          "name": "",
          "type": "address"
        }
      ],
      "payable": false,
      "stateMutability": "view",
      "type": "function"
    },
    {
      "constant": false,
      "inputs": [],
      "name": "cancelRecovery",
      "outputs": [],
      "payable": false,
      "stateMutability": "nonpayable",
      "type": "function"
    },
    {
      "constant": true,
      "inputs": [],
      "name": "recoveryConfirmations",
      "outputs": [
        {
          "name": "",
          "type": "uint256"
        }
      ],
      "payable": false,
      "stateMutability": "view",
      "type": "function"
    },
    {
      "constant": true,
      "inputs": [
        {
          "name": "account",
          "type": "address"
        }
      ],
      "name": "isOwner",
      "outputs": [
        {
          "name": "",
          "type": "bool"
        }
      ],
      "payable": false,
      "stateMutability": "view",
      "type": "function"
    },
    {
      "constant": false,
      "inputs": [
        {
          "name": "v",
          "type": "uint8[]"
        },
        {
          "name": "r",
          "type": "bytes32[]"
        },
        {
          "name": "s",
          "type": "bytes32[]"
        },
        {
          "name": "newOwners",
          "type": "address[]"
        }
      ],
      "name": "transferOwnership",
      "outputs": [],
      "payable": false,
      "stateMutability": "nonpayable",
      "type": "function"
    },
    {
      "constant": false,
      "inputs": [
        {
          "name": "newOwners",
          "type": "address[]"
        }
      ],
      "name": "confirmRecovery",
      "outputs": [],
      "payable": false,
      "stateMutability": "nonpayable",
      "type": "function"
    },
    {
      "constant": true,
      "inputs": [],
      "name": "recoveryHash",
      "outputs": [
        {
          "name": "",
          "type": "bytes32"
        }
      ],
      "payable": false,
      "stateMutability": "view",
      "type": "function"
    },
    {
      "constant": true,
      "inputs": [],
      "name": "recoveryBlock",
      "outputs": [
        {
          "name": "",
          "type": "uint256"
        }
      ],
      "payable": false,
      "stateMutability": "view",
      "type": "function"
    },
    {
      "constant": true,
      "inputs": [],
      "name": "nonce",
      "outputs": [
        {
          "name": "",
          "type": "uint256"
        }
      ],
      "payable": false,
      "stateMutability": "view",
      "type": "function"
    },
    {
      "constant": false,
      "inputs": [
        {
          "name": "newOwners",
          "type": "address[]"
        }
      ],
      "name": "startRecovery",
      "outputs": [],
      "payable": false,
      "stateMutability": "nonpayable",
      "type": "function"
    },
    {
      "constant": true,
      "inputs": [],
      "name": "listOwners",
      "outputs": [
        {
          "name": "",
          "type": "address[]"
        }
      ],
      "payable": false,
      "stateMutability": "view",
      "type": "function"
    },
    {
      "constant": false,
      "inputs": [
        {
          "name": "v",
          "type": "uint8[]"
        },
        {
          "name": "r",
          "type": "bytes32[]"
        },
        {
          "name": "s",
          "type": "bytes32[]"
        },
        {
          "name": "destination",
          "type": "address"
        },
        {
          "name": "value",
          "type": "uint256"
        },
        {
          "name": "data",
          "type": "bytes"
        }
      ],
      "name": "execute",
      "outputs": [],
      "payable": false,
      "stateMutability": "nonpayable",
      "type": "function"
    },
    {
      "inputs": [
        {
          "name": "_owners",
          "type": "address[]"
        },
        {
          "name": "_recoveryConfirmations",
          "type": "uint256"
        }
      ],
      "payable": false,
      "stateMutability": "nonpayable",
      "type": "constructor"
    },
    {
      "payable": true,
      "stateMutability": "payable",
      "type": "fallback"
    },
    {
      "anonymous": false,
      "inputs": [
        {
          "indexed": true,
          "name": "from",
          "type": "address"
        },
        {
          "indexed": false,
          "name": "newOwners",
          "type": "address[]"
        }
      ],
      "name": "RecoveryStarted",
      "type": "event"
    },
    {
      "anonymous": false,
      "inputs": [
        {
          "indexed": false,
          "name": "previousOwners",
          "type": "address[]"
        },
        {
          "indexed": false,
          "name": "newOwners",
          "type": "address[]"
        }
      ],
      "name": "OwnershipTransferred",
      "type": "event"
    },
    {
      "anonymous": false,
      "inputs": [
        {
          "indexed": true,
          "name": "destination",
          "type": "address"
        },
        {
          "indexed": false,
          "name": "nonce",
          "type": "uint256"
        },
        {
          "indexed": false,
          "name": "value",
          "type": "uint256"
        },
        {
          "indexed": false,
          "name": "data",
          "type": "bytes"
        }
      ],
      "name": "Executed",
      "type": "event"
    }
  ],
  "bytecode": "0x606060405234156200001057600080fd5b604051620014dd380380620014dd833981016040528080518201919060200180519060200190919050508181818080600081511115156200005057600080fd5b8160019080519060200190620000689291906200007d565b50505050806002819055505050505062000152565b828054828255906000526020600020908101928215620000f9579160200282015b82811115620000f85782518260006101000a81548173ffffffffffffffffffffffffffffffffffffffff021916908373ffffffffffffffffffffffffffffffffffffffff160217905550916020019190600101906200009e565b5b5090506200010891906200010c565b5090565b6200014f91905b808211156200014b57600081816101000a81549073ffffffffffffffffffffffffffffffffffffffff02191690555060010162000113565b5090565b90565b61137b80620001626000396000f3006060604052600436106100ba576000357c0100000000000000000000000000000000000000000000000000000000900463ffffffff168063025e7c27146100bc5780630ba234d61461011f5780632e737f76146101345780632f54bf6e1461015d57806335d9c92d146101ae57806352f2aeac146102c85780636102495c14610322578063794ee3d914610353578063affed0e01461037c578063b1b3a744146103a5578063ed60c0fc146103ff578063f12d394f14610469575b005b34156100c757600080fd5b6100dd60048080359060200190919050506105ae565b604051808273ffffffffffffffffffffffffffffffffffffffff1673ffffffffffffffffffffffffffffffffffffffff16815260200191505060405180910390f35b341561012a57600080fd5b6101326105ed565b005b341561013f57600080fd5b61014761061c565b6040518082815260200191505060405180910390f35b341561016857600080fd5b610194600480803573ffffffffffffffffffffffffffffffffffffffff16906020019091905050610622565b604051808215151515815260200191505060405180910390f35b34156101b957600080fd5b6102c66004808035906020019082018035906020019080806020026020016040519081016040528093929190818152602001838360200280828437820191505050505050919080359060200190820180359060200190808060200260200160405190810160405280939291908181526020018383602002808284378201915050505050509190803590602001908201803590602001908080602002602001604051908101604052809392919081815260200183836020028082843782019150505050505091908035906020019082018035906020019080806020026020016040519081016040528093929190818152602001838360200280828437820191505050505050919050506106c6565b005b34156102d357600080fd5b610320600480803590602001908201803590602001908080602002602001604051908101604052809392919081815260200183836020028082843782019150505050505091905050610b50565b005b341561032d57600080fd5b610335610c08565b60405180826000191660001916815260200191505060405180910390f35b341561035e57600080fd5b610366610c0e565b6040518082815260200191505060405180910390f35b341561038757600080fd5b61038f610c14565b6040518082815260200191505060405180910390f35b34156103b057600080fd5b6103fd600480803590602001908201803590602001908080602002602001604051908101604052809392919081815260200183836020028082843782019150505050505091905050610c1a565b005b341561040a57600080fd5b610412610c97565b6040518080602001828103825283818151815260200191508051906020019060200280838360005b8381101561045557808201518184015260208101905061043a565b505050509050019250505060405180910390f35b341561047457600080fd5b6105ac600480803590602001908201803590602001908080602002602001604051908101604052809392919081815260200183836020028082843782019150505050505091908035906020019082018035906020019080806020026020016040519081016040528093929190818152602001838360200280828437820191505050505050919080359060200190820180359060200190808060200260200160405190810160405280939291908181526020018383602002808284378201915050505050509190803573ffffffffffffffffffffffffffffffffffffffff1690602001909190803590602001909190803590602001908201803590602001908080601f01602080910402602001604051908101604052809392919081815260200183838082843782019150505050505091905050610d2b565b005b6001818154811015156105bd57fe5b90600052602060002090016000915054906101000a900473ffffffffffffffffffffffffffffffffffffffff1681565b6105f633610622565b151561060157600080fd5b600060035411151561061257600080fd5b61061a611260565b565b60025481565b600080600090505b6001805490508110156106bb5760018181548110151561064657fe5b906000526020600020900160009054906101000a900473ffffffffffffffffffffffffffffffffffffffff1673ffffffffffffffffffffffffffffffffffffffff168373ffffffffffffffffffffffffffffffffffffffff1614156106ae57600191506106c0565b808060010191505061062a565b600091505b50919050565b80600081511115156106d757600080fd5b84848460197f01000000000000000000000000000000000000000000000000000000000000000260007f010000000000000000000000000000000000000000000000000000000000000002308760005460405180867effffffffffffffffffffffffffffffffffffffffffffffffffffffffffffff19167effffffffffffffffffffffffffffffffffffffffffffffffffffffffffffff19168152600101857effffffffffffffffffffffffffffffffffffffffffffffffffffffffffffff19167effffffffffffffffffffffffffffffffffffffffffffffffffffffffffffff191681526001018473ffffffffffffffffffffffffffffffffffffffff1673ffffffffffffffffffffffffffffffffffffffff166c01000000000000000000000000028152601401838051906020019060200280838360005b8381101561082c578082015181840152602081019050610811565b50505050905001828152602001955050505050506040518091039020600080600180549050865114801561086557506001805490508551145b801561087657506001805490508451145b151561088157600080fd5b8260405180807f19457468657265756d205369676e6564204d6573736167653a0a333200000000815250601c01826000191660001916815260200191505060405180910390209150600090505b600180549050811015610a27576001818154811015156108ea57fe5b906000526020600020900160009054906101000a900473ffffffffffffffffffffffffffffffffffffffff1673ffffffffffffffffffffffffffffffffffffffff16600183888481518110151561093d57fe5b90602001906020020151888581518110151561095557fe5b90602001906020020151888681518110151561096d57fe5b90602001906020020151604051600081526020016040526000604051602001526040518085600019166000191681526020018460ff1660ff16815260200183600019166000191681526020018260001916600019168152602001945050505050602060405160208103908084039060008661646e5a03f115156109ef57600080fd5b50506020604051035173ffffffffffffffffffffffffffffffffffffffff16141515610a1a57600080fd5b80806001019150506108ce565b7fe62c04bb3499d4f432a50e07318d42861c4865afb22ee4cfe403d4f9455070906001896040518080602001806020018381038352858181548152602001915080548015610aca57602002820191906000526020600020905b8160009054906101000a900473ffffffffffffffffffffffffffffffffffffffff1673ffffffffffffffffffffffffffffffffffffffff1681526020019060010190808311610a80575b5050838103825284818151815260200191508051906020019060200280838360005b83811015610b07578082015181840152602081019050610aec565b5050505090500194505050505060405180910390a18760019080519060200190610b3292919061126e565b50600160008082825401925050819055505050505050505050505050565b610b5933610622565b1515610b6457600080fd5b6000600354111515610b7557600080fd5b600254600354014310151515610b8a57600080fd5b80600454600019168160405180828051906020019060200280838360005b83811015610bc3578082015181840152602081019050610ba8565b50505050905001915050604051809103902060001916141515610be557600080fd5b8160019080519060200190610bfb92919061126e565b50610c04611260565b5050565b60045481565b60035481565b60005481565b610c2333610622565b1515610c2e57600080fd5b8060008151111515610c3f57600080fd5b436003819055508160405180828051906020019060200280838360005b83811015610c77578082015181840152602081019050610c5c565b505050509050019150506040518091039020600481600019169055505050565b610c9f6112f8565b6001805480602002602001604051908101604052809291908181526020018280548015610d2157602002820191906000526020600020905b8160009054906101000a900473ffffffffffffffffffffffffffffffffffffffff1673ffffffffffffffffffffffffffffffffffffffff1681526020019060010190808311610cd7575b5050505050905090565b85858560197f01000000000000000000000000000000000000000000000000000000000000000260007f0100000000000000000000000000000000000000000000000000000000000000023088888860005460405180887effffffffffffffffffffffffffffffffffffffffffffffffffffffffffffff19167effffffffffffffffffffffffffffffffffffffffffffffffffffffffffffff19168152600101877effffffffffffffffffffffffffffffffffffffffffffffffffffffffffffff19167effffffffffffffffffffffffffffffffffffffffffffffffffffffffffffff191681526001018673ffffffffffffffffffffffffffffffffffffffff1673ffffffffffffffffffffffffffffffffffffffff166c010000000000000000000000000281526014018573ffffffffffffffffffffffffffffffffffffffff1673ffffffffffffffffffffffffffffffffffffffff166c0100000000000000000000000002815260140184815260200183805190602001908083835b602083101515610ece5780518252602082019150602081019050602083039250610ea9565b6001836020036101000a03801982511681845116808217855250505050505090500182815260200197505050505050505060405180910390206000806001805490508651148015610f2457506001805490508551145b8015610f3557506001805490508451145b1515610f4057600080fd5b8260405180807f19457468657265756d205369676e6564204d6573736167653a0a333200000000815250601c01826000191660001916815260200191505060405180910390209150600090505b6001805490508110156110e657600181815481101515610fa957fe5b906000526020600020900160009054906101000a900473ffffffffffffffffffffffffffffffffffffffff1673ffffffffffffffffffffffffffffffffffffffff166001838884815181101515610ffc57fe5b90602001906020020151888581518110151561101457fe5b90602001906020020151888681518110151561102c57fe5b90602001906020020151604051600081526020016040526000604051602001526040518085600019166000191681526020018460ff1660ff16815260200183600019166000191681526020018260001916600019168152602001945050505050602060405160208103908084039060008661646e5a03f115156110ae57600080fd5b50506020604051035173ffffffffffffffffffffffffffffffffffffffff161415156110d957600080fd5b8080600101915050610f8d565b8873ffffffffffffffffffffffffffffffffffffffff167f30dc9a249e121dc7ec74559d42f94e60bb91eb25e06df470ed1be2a02a9d7a046000548a8a6040518084815260200183815260200180602001828103825283818151815260200191508051906020019080838360005b8381101561116f578082015181840152602081019050611154565b50505050905090810190601f16801561119c5780820380516001836020036101000a031916815260200191505b5094505050505060405180910390a28873ffffffffffffffffffffffffffffffffffffffff16888860405180828051906020019080838360005b838110156111f15780820151818401526020810190506111d6565b50505050905090810190601f16801561121e5780820380516001836020036101000a031916815260200191505b5091505060006040518083038185876187965a03f192505050151561124257600080fd5b60016000808282540192505081905550505050505050505050505050565b600360009055600460009055565b8280548282559060005260206000209081019282156112e7579160200282015b828111156112e65782518260006101000a81548173ffffffffffffffffffffffffffffffffffffffff021916908373ffffffffffffffffffffffffffffffffffffffff1602179055509160200191906001019061128e565b5b5090506112f4919061130c565b5090565b602060405190810160405280600081525090565b61134c91905b8082111561134857600081816101000a81549073ffffffffffffffffffffffffffffffffffffffff021916905550600101611312565b5090565b905600a165627a7a72305820f6c0a457b9e442a4d26b0c795fb97e8d10d553a70e441f7136a20be1ed869b900029",
  "source": "pragma solidity 0.4.18;\n\nimport \"./MultiSig/RecoverableMultiSig.sol\";\n\n\ncontract TipsWallet is RecoverableMultiSig {\n    /* solhint-disable no-empty-blocks */\n    function TipsWallet(address[] _owners, uint256 _recoveryConfirmations)\n        public\n        RecoverableMultiSig(_owners, _recoveryConfirmations)\n    {\n    }\n    /* solhint-enable no-empty-blocks */\n}\n",
  "sourcePath": "/home/js/Projects/js/signhash/signhash-contracts/contracts/TipsWallet.sol",
  "compiler": {
    "name": "solc",
    "version": "0.4.18+commit.9cf6e910.Emscripten.clang"
  },
  "schemaVersion": "1.0.1",
  "updatedAt": "2017-12-05T20:36:31.339Z"
}