{
  "contractName": "TipsWallet",
  "abi": [
    {
      "constant": true,
      "inputs": [],
      "name": "owners",
      "outputs": [
        {
          "name": "",
          "type": "address[]"
        }
      ],
      "payable": false,
      "stateMutability": "view",
      "type": "function"
    },
    {
      "constant": true,
      "inputs": [],
      "name": "nonce",
      "outputs": [
        {
          "name": "",
          "type": "uint256"
        }
      ],
      "payable": false,
      "stateMutability": "view",
      "type": "function"
    },
    {
      "constant": false,
      "inputs": [
        {
          "name": "v",
          "type": "uint8[]"
        },
        {
          "name": "r",
          "type": "bytes32[]"
        },
        {
          "name": "s",
          "type": "bytes32[]"
        },
        {
          "name": "destination",
          "type": "address"
        },
        {
          "name": "value",
          "type": "uint256"
        },
        {
          "name": "data",
          "type": "bytes"
        }
      ],
      "name": "execute",
      "outputs": [],
      "payable": false,
      "stateMutability": "nonpayable",
      "type": "function"
    },
    {
      "constant": false,
      "inputs": [
        {
          "name": "v",
          "type": "uint8[]"
        },
        {
          "name": "r",
          "type": "bytes32[]"
        },
        {
          "name": "s",
          "type": "bytes32[]"
        },
        {
          "name": "newOwners",
          "type": "address[]"
        }
      ],
      "name": "setOwners",
      "outputs": [],
      "payable": false,
      "stateMutability": "nonpayable",
      "type": "function"
    },
    {
      "inputs": [
        {
          "name": "owners",
          "type": "address[]"
        }
      ],
      "payable": false,
      "stateMutability": "nonpayable",
      "type": "constructor"
    },
    {
      "payable": true,
      "stateMutability": "payable",
      "type": "fallback"
    },
    {
      "anonymous": false,
      "inputs": [
        {
          "indexed": true,
          "name": "setter",
          "type": "address"
        },
        {
          "indexed": false,
          "name": "owners",
          "type": "address[]"
        }
      ],
      "name": "OwnersSet",
      "type": "event"
    },
    {
      "anonymous": false,
      "inputs": [
        {
          "indexed": true,
          "name": "from",
          "type": "address"
        },
        {
          "indexed": false,
          "name": "value",
          "type": "uint256"
        }
      ],
      "name": "Deposit",
      "type": "event"
    },
    {
      "anonymous": false,
      "inputs": [
        {
          "indexed": true,
          "name": "destination",
          "type": "address"
        },
        {
          "indexed": false,
          "name": "nonce",
          "type": "uint256"
        },
        {
          "indexed": false,
          "name": "value",
          "type": "uint256"
        },
        {
          "indexed": false,
          "name": "data",
          "type": "bytes"
        }
      ],
      "name": "Executed",
      "type": "event"
    }
  ],
  "bytecode": "0x6060604052341561000f57600080fd5b604051610fe4380380610fe483398101604052808051820191905050806000815111151561003c57600080fd5b816001908051906020019061005292919061005a565b505050610127565b8280548282559060005260206000209081019282156100d3579160200282015b828111156100d25782518260006101000a81548173ffffffffffffffffffffffffffffffffffffffff021916908373ffffffffffffffffffffffffffffffffffffffff1602179055509160200191906001019061007a565b5b5090506100e091906100e4565b5090565b61012491905b8082111561012057600081816101000a81549073ffffffffffffffffffffffffffffffffffffffff0219169055506001016100ea565b5090565b90565b610eae806101366000396000f300606060405260043610610062576000357c0100000000000000000000000000000000000000000000000000000000900463ffffffff168063affe39c1146100bc578063affed0e014610126578063f12d394f1461014f578063faede34914610294575b60003411156100ba573373ffffffffffffffffffffffffffffffffffffffff167fe1fffcc4923d04b559f4d29a8bfc6cda04eb5b0d3c460751c2402c5c5cc9109c346040518082815260200191505060405180910390a25b005b34156100c757600080fd5b6100cf6103ae565b6040518080602001828103825283818151815260200191508051906020019060200280838360005b838110156101125780820151818401526020810190506100f7565b505050509050019250505060405180910390f35b341561013157600080fd5b610139610442565b6040518082815260200191505060405180910390f35b341561015a57600080fd5b610292600480803590602001908201803590602001908080602002602001604051908101604052809392919081815260200183836020028082843782019150505050505091908035906020019082018035906020019080806020026020016040519081016040528093929190818152602001838360200280828437820191505050505050919080359060200190820180359060200190808060200260200160405190810160405280939291908181526020018383602002808284378201915050505050509190803573ffffffffffffffffffffffffffffffffffffffff1690602001909190803590602001909190803590602001908201803590602001908080601f01602080910402602001604051908101604052809392919081815260200183838082843782019150505050505091905050610448565b005b341561029f57600080fd5b6103ac60048080359060200190820180359060200190808060200260200160405190810160405280939291908181526020018383602002808284378201915050505050509190803590602001908201803590602001908080602002602001604051908101604052809392919081815260200183836020028082843782019150505050505091908035906020019082018035906020019080806020026020016040519081016040528093929190818152602001838360200280828437820191505050505050919080359060200190820180359060200190808060200260200160405190810160405280939291908181526020018383602002808284378201915050505050509190505061097d565b005b6103b6610da1565b600180548060200260200160405190810160405280929190818152602001828054801561043857602002820191906000526020600020905b8160009054906101000a900473ffffffffffffffffffffffffffffffffffffffff1673ffffffffffffffffffffffffffffffffffffffff16815260200190600101908083116103ee575b5050505050905090565b60005481565b85858560197f01000000000000000000000000000000000000000000000000000000000000000260007f0100000000000000000000000000000000000000000000000000000000000000023088888860005460405180887effffffffffffffffffffffffffffffffffffffffffffffffffffffffffffff19167effffffffffffffffffffffffffffffffffffffffffffffffffffffffffffff19168152600101877effffffffffffffffffffffffffffffffffffffffffffffffffffffffffffff19167effffffffffffffffffffffffffffffffffffffffffffffffffffffffffffff191681526001018673ffffffffffffffffffffffffffffffffffffffff1673ffffffffffffffffffffffffffffffffffffffff166c010000000000000000000000000281526014018573ffffffffffffffffffffffffffffffffffffffff1673ffffffffffffffffffffffffffffffffffffffff166c0100000000000000000000000002815260140184815260200183805190602001908083835b6020831015156105eb57805182526020820191506020810190506020830392506105c6565b6001836020036101000a0380198251168184511680821785525050505050509050018281526020019750505050505050506040518091039020600080600180549050865114801561064157506001805490508551145b801561065257506001805490508451145b151561065d57600080fd5b8260405180807f19457468657265756d205369676e6564204d6573736167653a0a333200000000815250601c01826000191660001916815260200191505060405180910390209150600090505b600180549050811015610803576001818154811015156106c657fe5b906000526020600020900160009054906101000a900473ffffffffffffffffffffffffffffffffffffffff1673ffffffffffffffffffffffffffffffffffffffff16600183888481518110151561071957fe5b90602001906020020151888581518110151561073157fe5b90602001906020020151888681518110151561074957fe5b90602001906020020151604051600081526020016040526000604051602001526040518085600019166000191681526020018460ff1660ff16815260200183600019166000191681526020018260001916600019168152602001945050505050602060405160208103908084039060008661646e5a03f115156107cb57600080fd5b50506020604051035173ffffffffffffffffffffffffffffffffffffffff161415156107f657600080fd5b80806001019150506106aa565b8873ffffffffffffffffffffffffffffffffffffffff167f30dc9a249e121dc7ec74559d42f94e60bb91eb25e06df470ed1be2a02a9d7a046000548a8a6040518084815260200183815260200180602001828103825283818151815260200191508051906020019080838360005b8381101561088c578082015181840152602081019050610871565b50505050905090810190601f1680156108b95780820380516001836020036101000a031916815260200191505b5094505050505060405180910390a28873ffffffffffffffffffffffffffffffffffffffff16888860405180828051906020019080838360005b8381101561090e5780820151818401526020810190506108f3565b50505050905090810190601f16801561093b5780820380516001836020036101000a031916815260200191505b5091505060006040518083038185876187965a03f192505050151561095f57600080fd5b60016000808282540192505081905550505050505050505050505050565b806000815111151561098e57600080fd5b84848460197f01000000000000000000000000000000000000000000000000000000000000000260007f010000000000000000000000000000000000000000000000000000000000000002308760005460405180867effffffffffffffffffffffffffffffffffffffffffffffffffffffffffffff19167effffffffffffffffffffffffffffffffffffffffffffffffffffffffffffff19168152600101857effffffffffffffffffffffffffffffffffffffffffffffffffffffffffffff19167effffffffffffffffffffffffffffffffffffffffffffffffffffffffffffff191681526001018473ffffffffffffffffffffffffffffffffffffffff1673ffffffffffffffffffffffffffffffffffffffff166c01000000000000000000000000028152601401838051906020019060200280838360005b83811015610ae3578082015181840152602081019050610ac8565b505050509050018281526020019550505050505060405180910390206000806001805490508651148015610b1c57506001805490508551145b8015610b2d57506001805490508451145b1515610b3857600080fd5b8260405180807f19457468657265756d205369676e6564204d6573736167653a0a333200000000815250601c01826000191660001916815260200191505060405180910390209150600090505b600180549050811015610cde57600181815481101515610ba157fe5b906000526020600020900160009054906101000a900473ffffffffffffffffffffffffffffffffffffffff1673ffffffffffffffffffffffffffffffffffffffff166001838884815181101515610bf457fe5b906020019060200201518885815181101515610c0c57fe5b906020019060200201518886815181101515610c2457fe5b90602001906020020151604051600081526020016040526000604051602001526040518085600019166000191681526020018460ff1660ff16815260200183600019166000191681526020018260001916600019168152602001945050505050602060405160208103908084039060008661646e5a03f11515610ca657600080fd5b50506020604051035173ffffffffffffffffffffffffffffffffffffffff16141515610cd157600080fd5b8080600101915050610b85565b3373ffffffffffffffffffffffffffffffffffffffff167ffa6a57610ae648e99904b791e12a81c792c69bb1dc79f43eba7659835a51eba2896040518080602001828103825283818151815260200191508051906020019060200280838360005b83811015610d5a578082015181840152602081019050610d3f565b505050509050019250505060405180910390a28760019080519060200190610d83929190610db5565b50600160008082825401925050819055505050505050505050505050565b602060405190810160405280600081525090565b828054828255906000526020600020908101928215610e2e579160200282015b82811115610e2d5782518260006101000a81548173ffffffffffffffffffffffffffffffffffffffff021916908373ffffffffffffffffffffffffffffffffffffffff16021790555091602001919060010190610dd5565b5b509050610e3b9190610e3f565b5090565b610e7f91905b80821115610e7b57600081816101000a81549073ffffffffffffffffffffffffffffffffffffffff021916905550600101610e45565b5090565b905600a165627a7a72305820d60aabee3b3bc4c79f2348174a855aca525ca213ae7ba37b6fd8ecefa48082ea0029",
  "source": "pragma solidity 0.4.18;\n\n\ncontract TipsWallet {\n\n    //--- Storage\n    uint256 public nonce;\n    address[] private _owners;\n\n    //--- Constructor\n    function TipsWallet(address[] owners)\n        public\n        onlyNonEmpty(owners)\n    {\n        _owners = owners;\n    }\n\n    //--- Fallback function\n    function() public payable {\n        if (msg.value > 0) {\n            Deposit(msg.sender, msg.value);\n        }\n    }\n\n    //--- Events\n    event OwnersSet(address indexed setter, address[] owners);\n    event Deposit(address indexed from, uint256 value);\n    event Executed(address indexed destination, uint256 nonce, uint256 value, bytes data);\n\n    //--- Modifiers\n    modifier onlyNonEmpty(address[] addresses) {\n        require(addresses.length > 0);\n\n        _;\n    }\n\n    modifier onlySigned(uint8[] v, bytes32[] r, bytes32[] s, bytes32 hash) {\n        require(\n            (v.length == _owners.length) &&\n            (r.length == _owners.length) &&\n            (s.length == _owners.length)\n        );\n\n        bytes32 prefixedHash = keccak256(\"\\x19Ethereum Signed Message:\\n32\", hash);\n        for (uint256 i = 0; i < _owners.length; i++) {\n            require(ecrecover(prefixedHash, v[i], r[i], s[i]) == _owners[i]);\n        }\n\n        _;\n\n        nonce += 1;\n    }\n\n    //--- Accessors\n    function owners() public view returns (address[]) {\n        return _owners;\n    }\n\n    function setOwners(\n        uint8[] v,\n        bytes32[] r,\n        bytes32[] s,\n        address[] newOwners\n    )\n        public\n        onlyNonEmpty(newOwners)\n        onlySigned(v, r, s, keccak256(byte(0x19), byte(0), this, newOwners, nonce))\n    {\n        OwnersSet(msg.sender, newOwners);\n\n        _owners = newOwners;\n    }\n\n    //--- Public mutable functions\n    function execute(\n        uint8[] v,\n        bytes32[] r,\n        bytes32[] s,\n        address destination,\n        uint256 value,\n        bytes data\n    )\n        public\n        onlySigned(v, r, s, keccak256(byte(0x19), byte(0), this, destination, value, data, nonce))\n    {\n        Executed(destination, nonce, value, data);\n\n        /* solhint-disable avoid-call-value */\n        require(destination.call.value(value)(data));\n        /* solhint-enable avoid-call-value */\n    }\n}\n",
  "sourcePath": "/home/js/Projects/js/signhash/signhash-contracts/contracts/TipsWallet.sol",
  "compiler": {
    "name": "solc",
    "version": "0.4.18+commit.9cf6e910.Emscripten.clang"
  },
  "schemaVersion": "1.0.1",
  "updatedAt": "2017-11-26T12:04:01.473Z"
}