{
  "contractName": "TipsWallet",
  "abi": [
    {
      "constant": true,
      "inputs": [],
      "name": "owners",
      "outputs": [
        {
          "name": "",
          "type": "address[]"
        }
      ],
      "payable": false,
      "stateMutability": "view",
      "type": "function"
    },
    {
      "constant": true,
      "inputs": [],
      "name": "nonce",
      "outputs": [
        {
          "name": "",
          "type": "uint256"
        }
      ],
      "payable": false,
      "stateMutability": "view",
      "type": "function"
    },
    {
      "constant": false,
      "inputs": [
        {
          "name": "v",
          "type": "uint8[]"
        },
        {
          "name": "r",
          "type": "bytes32[]"
        },
        {
          "name": "s",
          "type": "bytes32[]"
        },
        {
          "name": "destination",
          "type": "address"
        },
        {
          "name": "value",
          "type": "uint256"
        },
        {
          "name": "data",
          "type": "bytes"
        }
      ],
      "name": "execute",
      "outputs": [],
      "payable": false,
      "stateMutability": "nonpayable",
      "type": "function"
    },
    {
      "inputs": [
        {
          "name": "owners",
          "type": "address[]"
        }
      ],
      "payable": false,
      "stateMutability": "nonpayable",
      "type": "constructor"
    },
    {
      "payable": true,
      "stateMutability": "payable",
      "type": "fallback"
    },
    {
      "anonymous": false,
      "inputs": [
        {
          "indexed": false,
          "name": "setter",
          "type": "address"
        },
        {
          "indexed": false,
          "name": "owners",
          "type": "address[]"
        }
      ],
      "name": "OwnersSet",
      "type": "event"
    },
    {
      "anonymous": false,
      "inputs": [
        {
          "indexed": false,
          "name": "from",
          "type": "address"
        },
        {
          "indexed": false,
          "name": "value",
          "type": "uint256"
        }
      ],
      "name": "Deposit",
      "type": "event"
    },
    {
      "anonymous": false,
      "inputs": [
        {
          "indexed": false,
          "name": "destination",
          "type": "address"
        },
        {
          "indexed": false,
          "name": "nonce",
          "type": "uint256"
        },
        {
          "indexed": false,
          "name": "value",
          "type": "uint256"
        },
        {
          "indexed": false,
          "name": "data",
          "type": "bytes"
        }
      ],
      "name": "Executed",
      "type": "event"
    }
  ],
  "bytecode": "0x6060604052341561000f57600080fd5b604051610ab0380380610ab0833981016040528080518201919050506000815111151561003b57600080fd5b8060019080519060200190610051929190610104565b507ffa6a57610ae648e99904b791e12a81c792c69bb1dc79f43eba7659835a51eba23382604051808373ffffffffffffffffffffffffffffffffffffffff1673ffffffffffffffffffffffffffffffffffffffff16815260200180602001828103825283818151815260200191508051906020019060200280838360005b838110156100ea5780820151818401526020810190506100cf565b50505050905001935050505060405180910390a1506101d1565b82805482825590600052602060002090810192821561017d579160200282015b8281111561017c5782518260006101000a81548173ffffffffffffffffffffffffffffffffffffffff021916908373ffffffffffffffffffffffffffffffffffffffff16021790555091602001919060010190610124565b5b50905061018a919061018e565b5090565b6101ce91905b808211156101ca57600081816101000a81549073ffffffffffffffffffffffffffffffffffffffff021916905550600101610194565b5090565b90565b6108d0806101e06000396000f300606060405260043610610057576000357c0100000000000000000000000000000000000000000000000000000000900463ffffffff168063affe39c1146100ce578063affed0e014610138578063f12d394f14610161575b60003411156100cc577fe1fffcc4923d04b559f4d29a8bfc6cda04eb5b0d3c460751c2402c5c5cc9109c3334604051808373ffffffffffffffffffffffffffffffffffffffff1673ffffffffffffffffffffffffffffffffffffffff1681526020018281526020019250505060405180910390a15b005b34156100d957600080fd5b6100e16102a6565b6040518080602001828103825283818151815260200191508051906020019060200280838360005b83811015610124578082015181840152602081019050610109565b505050509050019250505060405180910390f35b341561014357600080fd5b61014b61033a565b6040518082815260200191505060405180910390f35b341561016c57600080fd5b6102a4600480803590602001908201803590602001908080602002602001604051908101604052809392919081815260200183836020028082843782019150505050505091908035906020019082018035906020019080806020026020016040519081016040528093929190818152602001838360200280828437820191505050505050919080359060200190820180359060200190808060200260200160405190810160405280939291908181526020018383602002808284378201915050505050509190803573ffffffffffffffffffffffffffffffffffffffff1690602001909190803590602001909190803590602001908201803590602001908080601f01602080910402602001604051908101604052809392919081815260200183838082843782019150505050505091905050610340565b005b6102ae610890565b600180548060200260200160405190810160405280929190818152602001828054801561033057602002820191906000526020600020905b8160009054906101000a900473ffffffffffffffffffffffffffffffffffffffff1673ffffffffffffffffffffffffffffffffffffffff16815260200190600101908083116102e6575b5050505050905090565b60005481565b6000806000600180549050895114801561035f57506001805490508851145b801561037057506001805490508751145b151561037b57600080fd5b60197f01000000000000000000000000000000000000000000000000000000000000000260007f0100000000000000000000000000000000000000000000000000000000000000023088888860005460405180887effffffffffffffffffffffffffffffffffffffffffffffffffffffffffffff19167effffffffffffffffffffffffffffffffffffffffffffffffffffffffffffff19168152600101877effffffffffffffffffffffffffffffffffffffffffffffffffffffffffffff19167effffffffffffffffffffffffffffffffffffffffffffffffffffffffffffff191681526001018673ffffffffffffffffffffffffffffffffffffffff1673ffffffffffffffffffffffffffffffffffffffff166c010000000000000000000000000281526014018573ffffffffffffffffffffffffffffffffffffffff1673ffffffffffffffffffffffffffffffffffffffff166c0100000000000000000000000002815260140184815260200183805190602001908083835b60208310151561051b57805182526020820191506020810190506020830392506104f6565b6001836020036101000a038019825116818451168082178552505050505050905001828152602001975050505050505050604051809103902092508260405180807f19457468657265756d205369676e6564204d6573736167653a0a333200000000815250601c01826000191660001916815260200191505060405180910390209150600090505b6001805490508110156106fc576001818154811015156105bf57fe5b906000526020600020900160009054906101000a900473ffffffffffffffffffffffffffffffffffffffff1673ffffffffffffffffffffffffffffffffffffffff166001838b8481518110151561061257fe5b906020019060200201518b8581518110151561062a57fe5b906020019060200201518b8681518110151561064257fe5b90602001906020020151604051600081526020016040526000604051602001526040518085600019166000191681526020018460ff1660ff16815260200183600019166000191681526020018260001916600019168152602001945050505050602060405160208103908084039060008661646e5a03f115156106c457600080fd5b50506020604051035173ffffffffffffffffffffffffffffffffffffffff161415156106ef57600080fd5b80806001019150506105a3565b7f30dc9a249e121dc7ec74559d42f94e60bb91eb25e06df470ed1be2a02a9d7a04866000548787604051808573ffffffffffffffffffffffffffffffffffffffff1673ffffffffffffffffffffffffffffffffffffffff16815260200184815260200183815260200180602001828103825283818151815260200191508051906020019080838360005b838110156107a1578082015181840152602081019050610786565b50505050905090810190601f1680156107ce5780820380516001836020036101000a031916815260200191505b509550505050505060405180910390a1600160008082825401925050819055508573ffffffffffffffffffffffffffffffffffffffff16858560405180828051906020019080838360005b83811015610834578082015181840152602081019050610819565b50505050905090810190601f1680156108615780820380516001836020036101000a031916815260200191505b5091505060006040518083038185876187965a03f192505050151561088557600080fd5b505050505050505050565b6020604051908101604052806000815250905600a165627a7a72305820f748891053f9339919deef2a5b448ce29628199459b0d8fa2c3f70ea9b5423590029",
  "source": "pragma solidity 0.4.18;\n\n\ncontract TipsWallet {\n\n    //--- Storage\n    uint256 public nonce;\n    address[] private _owners;\n\n    //--- Constructor\n    function TipsWallet(address[] owners) public {\n        require(owners.length > 0);\n\n        _owners = owners;\n        OwnersSet(msg.sender, owners);\n    }\n\n    //--- Fallback function\n    function() public payable {\n        if (msg.value > 0) {\n            Deposit(msg.sender, msg.value);\n        }\n    }\n\n    //--- Events\n    event OwnersSet(address setter, address[] owners);\n    event Deposit(address from, uint256 value);\n    event Executed(address destination, uint256 nonce, uint256 value, bytes data);\n\n    //--- Accessors\n    function owners() public view returns (address[]) {\n        return _owners;\n    }\n\n    //--- Public mutable functions\n    function execute(\n        uint8[] v,\n        bytes32[] r,\n        bytes32[] s,\n        address destination,\n        uint256 value,\n        bytes data\n    )\n        public\n    {\n        require((v.length == _owners.length) && (r.length == _owners.length) && (s.length == _owners.length));\n\n        bytes32 hash = keccak256(byte(0x19), byte(0), this, destination, value, data, nonce);\n        bytes32 prefixedHash = keccak256(\"\\x19Ethereum Signed Message:\\n32\", hash);\n\n        for (uint256 i = 0; i < _owners.length; i++) {\n            require(ecrecover(prefixedHash, v[i], r[i], s[i]) == _owners[i]);\n        }\n\n        Executed(destination, nonce, value, data);\n\n        nonce += 1;\n        require(destination.call.value(value)(data));\n    }\n}\n",
  "sourcePath": "/home/js/Projects/js/signhash/signhash-contracts/contracts/TipsWallet.sol",
  "compiler": {
    "name": "solc",
    "version": "0.4.18+commit.9cf6e910.Emscripten.clang"
  },
  "schemaVersion": "1.0.1",
  "updatedAt": "2017-11-22T21:49:21.858Z"
}