{
  "contractName": "TransferableMultiSig",
  "abi": [
    {
      "constant": true,
      "inputs": [
        {
          "name": "",
          "type": "uint256"
        }
      ],
      "name": "owners",
      "outputs": [
        {
          "name": "",
          "type": "address"
        }
      ],
      "payable": false,
      "stateMutability": "view",
      "type": "function"
    },
    {
      "constant": false,
      "inputs": [
        {
          "name": "v",
          "type": "uint8[]"
        },
        {
          "name": "r",
          "type": "bytes32[]"
        },
        {
          "name": "s",
          "type": "bytes32[]"
        },
        {
          "name": "newOwners",
          "type": "address[]"
        }
      ],
      "name": "transferOwnership",
      "outputs": [],
      "payable": false,
      "stateMutability": "nonpayable",
      "type": "function"
    },
    {
      "constant": true,
      "inputs": [],
      "name": "nonce",
      "outputs": [
        {
          "name": "",
          "type": "uint256"
        }
      ],
      "payable": false,
      "stateMutability": "view",
      "type": "function"
    },
    {
      "constant": true,
      "inputs": [],
      "name": "listOwners",
      "outputs": [
        {
          "name": "",
          "type": "address[]"
        }
      ],
      "payable": false,
      "stateMutability": "view",
      "type": "function"
    },
    {
      "constant": false,
      "inputs": [
        {
          "name": "v",
          "type": "uint8[]"
        },
        {
          "name": "r",
          "type": "bytes32[]"
        },
        {
          "name": "s",
          "type": "bytes32[]"
        },
        {
          "name": "destination",
          "type": "address"
        },
        {
          "name": "value",
          "type": "uint256"
        },
        {
          "name": "data",
          "type": "bytes"
        }
      ],
      "name": "execute",
      "outputs": [],
      "payable": false,
      "stateMutability": "nonpayable",
      "type": "function"
    },
    {
      "inputs": [
        {
          "name": "_owners",
          "type": "address[]"
        }
      ],
      "payable": false,
      "stateMutability": "nonpayable",
      "type": "constructor"
    },
    {
      "payable": true,
      "stateMutability": "payable",
      "type": "fallback"
    },
    {
      "anonymous": false,
      "inputs": [
        {
          "indexed": false,
          "name": "previousOwners",
          "type": "address[]"
        },
        {
          "indexed": false,
          "name": "newOwners",
          "type": "address[]"
        }
      ],
      "name": "OwnershipTransferred",
      "type": "event"
    },
    {
      "anonymous": false,
      "inputs": [
        {
          "indexed": true,
          "name": "destination",
          "type": "address"
        },
        {
          "indexed": false,
          "name": "nonce",
          "type": "uint256"
        },
        {
          "indexed": false,
          "name": "value",
          "type": "uint256"
        },
        {
          "indexed": false,
          "name": "data",
          "type": "bytes"
        }
      ],
      "name": "Executed",
      "type": "event"
    }
  ],
  "bytecode": "0x6060604052341561000f57600080fd5b6040516110a13803806110a18339810160405280805182019190505080806000815111151561003d57600080fd5b816001908051906020019061005392919061005c565b50505050610129565b8280548282559060005260206000209081019282156100d5579160200282015b828111156100d45782518260006101000a81548173ffffffffffffffffffffffffffffffffffffffff021916908373ffffffffffffffffffffffffffffffffffffffff1602179055509160200191906001019061007c565b5b5090506100e291906100e6565b5090565b61012691905b8082111561012257600081816101000a81549073ffffffffffffffffffffffffffffffffffffffff0219169055506001016100ec565b5090565b90565b610f69806101386000396000f30060606040526004361061006d576000357c0100000000000000000000000000000000000000000000000000000000900463ffffffff168063025e7c271461006f57806335d9c92d146100d2578063affed0e0146101ec578063ed60c0fc14610215578063f12d394f1461027f575b005b341561007a57600080fd5b61009060048080359060200190919050506103c4565b604051808273ffffffffffffffffffffffffffffffffffffffff1673ffffffffffffffffffffffffffffffffffffffff16815260200191505060405180910390f35b34156100dd57600080fd5b6101ea600480803590602001908201803590602001908080602002602001604051908101604052809392919081815260200183836020028082843782019150505050505091908035906020019082018035906020019080806020026020016040519081016040528093929190818152602001838360200280828437820191505050505050919080359060200190820180359060200190808060200260200160405190810160405280939291908181526020018383602002808284378201915050505050509190803590602001908201803590602001908080602002602001604051908101604052809392919081815260200183836020028082843782019150505050505091905050610403565b005b34156101f757600080fd5b6101ff61088d565b6040518082815260200191505060405180910390f35b341561022057600080fd5b610228610893565b6040518080602001828103825283818151815260200191508051906020019060200280838360005b8381101561026b578082015181840152602081019050610250565b505050509050019250505060405180910390f35b341561028a57600080fd5b6103c2600480803590602001908201803590602001908080602002602001604051908101604052809392919081815260200183836020028082843782019150505050505091908035906020019082018035906020019080806020026020016040519081016040528093929190818152602001838360200280828437820191505050505050919080359060200190820180359060200190808060200260200160405190810160405280939291908181526020018383602002808284378201915050505050509190803573ffffffffffffffffffffffffffffffffffffffff1690602001909190803590602001909190803590602001908201803590602001908080601f01602080910402602001604051908101604052809392919081815260200183838082843782019150505050505091905050610927565b005b6001818154811015156103d357fe5b90600052602060002090016000915054906101000a900473ffffffffffffffffffffffffffffffffffffffff1681565b806000815111151561041457600080fd5b84848460197f01000000000000000000000000000000000000000000000000000000000000000260007f010000000000000000000000000000000000000000000000000000000000000002308760005460405180867effffffffffffffffffffffffffffffffffffffffffffffffffffffffffffff19167effffffffffffffffffffffffffffffffffffffffffffffffffffffffffffff19168152600101857effffffffffffffffffffffffffffffffffffffffffffffffffffffffffffff19167effffffffffffffffffffffffffffffffffffffffffffffffffffffffffffff191681526001018473ffffffffffffffffffffffffffffffffffffffff1673ffffffffffffffffffffffffffffffffffffffff166c01000000000000000000000000028152601401838051906020019060200280838360005b8381101561056957808201518184015260208101905061054e565b5050505090500182815260200195505050505050604051809103902060008060018054905086511480156105a257506001805490508551145b80156105b357506001805490508451145b15156105be57600080fd5b8260405180807f19457468657265756d205369676e6564204d6573736167653a0a333200000000815250601c01826000191660001916815260200191505060405180910390209150600090505b6001805490508110156107645760018181548110151561062757fe5b906000526020600020900160009054906101000a900473ffffffffffffffffffffffffffffffffffffffff1673ffffffffffffffffffffffffffffffffffffffff16600183888481518110151561067a57fe5b90602001906020020151888581518110151561069257fe5b9060200190602002015188868151811015156106aa57fe5b90602001906020020151604051600081526020016040526000604051602001526040518085600019166000191681526020018460ff1660ff16815260200183600019166000191681526020018260001916600019168152602001945050505050602060405160208103908084039060008661646e5a03f1151561072c57600080fd5b50506020604051035173ffffffffffffffffffffffffffffffffffffffff1614151561075757600080fd5b808060010191505061060b565b7fe62c04bb3499d4f432a50e07318d42861c4865afb22ee4cfe403d4f945507090600189604051808060200180602001838103835285818154815260200191508054801561080757602002820191906000526020600020905b8160009054906101000a900473ffffffffffffffffffffffffffffffffffffffff1673ffffffffffffffffffffffffffffffffffffffff16815260200190600101908083116107bd575b5050838103825284818151815260200191508051906020019060200280838360005b83811015610844578082015181840152602081019050610829565b5050505090500194505050505060405180910390a1876001908051906020019061086f929190610e5c565b50600160008082825401925050819055505050505050505050505050565b60005481565b61089b610ee6565b600180548060200260200160405190810160405280929190818152602001828054801561091d57602002820191906000526020600020905b8160009054906101000a900473ffffffffffffffffffffffffffffffffffffffff1673ffffffffffffffffffffffffffffffffffffffff16815260200190600101908083116108d3575b5050505050905090565b85858560197f01000000000000000000000000000000000000000000000000000000000000000260007f0100000000000000000000000000000000000000000000000000000000000000023088888860005460405180887effffffffffffffffffffffffffffffffffffffffffffffffffffffffffffff19167effffffffffffffffffffffffffffffffffffffffffffffffffffffffffffff19168152600101877effffffffffffffffffffffffffffffffffffffffffffffffffffffffffffff19167effffffffffffffffffffffffffffffffffffffffffffffffffffffffffffff191681526001018673ffffffffffffffffffffffffffffffffffffffff1673ffffffffffffffffffffffffffffffffffffffff166c010000000000000000000000000281526014018573ffffffffffffffffffffffffffffffffffffffff1673ffffffffffffffffffffffffffffffffffffffff166c0100000000000000000000000002815260140184815260200183805190602001908083835b602083101515610aca5780518252602082019150602081019050602083039250610aa5565b6001836020036101000a03801982511681845116808217855250505050505090500182815260200197505050505050505060405180910390206000806001805490508651148015610b2057506001805490508551145b8015610b3157506001805490508451145b1515610b3c57600080fd5b8260405180807f19457468657265756d205369676e6564204d6573736167653a0a333200000000815250601c01826000191660001916815260200191505060405180910390209150600090505b600180549050811015610ce257600181815481101515610ba557fe5b906000526020600020900160009054906101000a900473ffffffffffffffffffffffffffffffffffffffff1673ffffffffffffffffffffffffffffffffffffffff166001838884815181101515610bf857fe5b906020019060200201518885815181101515610c1057fe5b906020019060200201518886815181101515610c2857fe5b90602001906020020151604051600081526020016040526000604051602001526040518085600019166000191681526020018460ff1660ff16815260200183600019166000191681526020018260001916600019168152602001945050505050602060405160208103908084039060008661646e5a03f11515610caa57600080fd5b50506020604051035173ffffffffffffffffffffffffffffffffffffffff16141515610cd557600080fd5b8080600101915050610b89565b8873ffffffffffffffffffffffffffffffffffffffff167f30dc9a249e121dc7ec74559d42f94e60bb91eb25e06df470ed1be2a02a9d7a046000548a8a6040518084815260200183815260200180602001828103825283818151815260200191508051906020019080838360005b83811015610d6b578082015181840152602081019050610d50565b50505050905090810190601f168015610d985780820380516001836020036101000a031916815260200191505b5094505050505060405180910390a28873ffffffffffffffffffffffffffffffffffffffff16888860405180828051906020019080838360005b83811015610ded578082015181840152602081019050610dd2565b50505050905090810190601f168015610e1a5780820380516001836020036101000a031916815260200191505b5091505060006040518083038185876187965a03f1925050501515610e3e57600080fd5b60016000808282540192505081905550505050505050505050505050565b828054828255906000526020600020908101928215610ed5579160200282015b82811115610ed45782518260006101000a81548173ffffffffffffffffffffffffffffffffffffffff021916908373ffffffffffffffffffffffffffffffffffffffff16021790555091602001919060010190610e7c565b5b509050610ee29190610efa565b5090565b602060405190810160405280600081525090565b610f3a91905b80821115610f3657600081816101000a81549073ffffffffffffffffffffffffffffffffffffffff021916905550600101610f00565b5090565b905600a165627a7a72305820b6348e05e1f8f763b73a536c949044ce1fcbb92195971d7fbe7f0a4b5357428c0029",
  "source": "pragma solidity 0.4.18;\n\nimport \"./MultiSig.sol\";\n\n\ncontract TransferableMultiSig is MultiSig {\n\n    /* solhint-disable no-empty-blocks */\n    function TransferableMultiSig(address[] _owners)\n        public\n        MultiSig(_owners)\n    {\n    }\n    /* solhint-enable no-empty-blocks */\n\n    event OwnershipTransferred(address[] previousOwners, address[] newOwners);\n\n    function transferOwnership(\n        uint8[] v,\n        bytes32[] r,\n        bytes32[] s,\n        address[] newOwners\n    )\n        public\n        onlyNotEmpty(newOwners)\n        onlySigned(v, r, s, keccak256(byte(0x19), byte(0), this, newOwners, nonce))\n    {\n        OwnershipTransferred(owners, newOwners);\n\n        owners = newOwners;\n    }\n}\n",
  "sourcePath": "/home/js/Projects/js/signhash/signhash-contracts/contracts/MultiSig/TransferableMultiSig.sol",
  "compiler": {
    "name": "solc",
    "version": "0.4.18+commit.9cf6e910.Emscripten.clang"
  },
  "schemaVersion": "1.0.1",
  "updatedAt": "2017-12-05T20:36:31.327Z"
}